:020000040800F2
:10000000A806002001010008090100080B010008F2
:100010000D0100080F010008110100080000000098
:1000200000000000000000000000000013010008B4
:100030001501000800000000170100088D290008C4
:100040001B0100081B0100081B0100081B01000820
:100050001B0100081B0100081B0100081B01000810
:100060001B0100081B0100081B0100081B01000800
:100070001B0100081B0100081B0100081B010008F0
:100080001B0100081B0100081B0100081B010008E0
:100090001B0100081B0100081B0100081B010008D0
:1000A0001B0100081B0100081B0100081B010008C0
:1000B000412A00084D2A0008592A00081B0100089F
:1000C0001B0100081B0100081B0100081B010008A0
:1000D0001B010008693000081B0100081B01000813
:1000E0001B0100081B0100081B010008DFF80CD0F1
:1000F00000F096FB00480047F9300008A8060020F1
:100100000648804706480047FEE7FEE7FEE7FEE7B1
:10011000FEE7FEE7FEE7FEE7FEE7FEE7F929000857
:10012000ED000008202A04DB203A21FA02F0002129
:10013000704721FA02F3D040C2F1200291400843F7
:100140001946704740EA01039B0703D009E008C93C
:10015000121F08C0042AFAD203E011F8013B00F88C
:10016000013B521EF9D27047F0B480EA0102D40F6D
:100170004200B2EB410F02D20246084611464A0045
:1001800042D0C30DDDB2C1F3C752AD1A202D35DA0E
:10019000C1F3160141F4000204B15242C5F1200638
:1001A00002FA06F12A411044B3EBD05F23D0C4B168
:1001B000012DA0EBC35009DCF0BC4FF0004202EA75
:1001C000C352DBB200F5000000F09FBA400000F11E
:1001D000807000EBC350A0F1807040EAD1704900FC
:1001E00009E0490841EAC071A0EBC35000F50000E6
:1001F000400800EBC350F0BC00F07EBA614201221F
:1002000002EB4101001BF6E7F0BC704781F00041B2
:10021000AAE780F00040A7E780EA010210B502F0EB
:100220000043400022D04A001FD0010E01EB1261B2
:10023000C0F35600C2F3560240F4000042F400023C
:10024000A0FB022000047F39140400D0401C50EAB7
:10025000124001D44000491EC2B20C0604EBD0107B
:10026000401C4008802A02D003E0002010BD20F08E
:100270000100002900DA0020184310BD30B480EAE4
:10028000010202F0004530F0004221F0004013D09E
:1002900090B1C30DD40DC2F31601C0F31600E41AD9
:1002A00041F4000140F400027D34914201D3641C0A
:1002B00000E04900002C02DA30BC002070474FF407
:1002C00000000023914201D3891A034340084FEAFA
:1002D0004101F7D151B1914202D14FF0004105E007
:1002E00002D24FF0010101E06FF0010103EBC450B5
:1002F000284430BC00F000BA420005D0C0F3C75219
:100300005242914201DC0020704700EBC15070471F
:100310002DE9FE4F804681EA0300C00F0C46009095
:1003200021F0004123F00045B8EB0200A94105D2BD
:100330004046214690461C460B46024623F00040AC
:10034000104347D0270DC7F30A00C3F30A510290A8
:10035000401A019040286BDAC3F3130040F4801B6D
:100360000098924620B10023D2EB030A63EB0B0BFB
:1003700001985946C0F14002504600F09CF90646EB
:100380000D4650465946019A00F0A4F910EB0800BA
:100390006141002487EA115284EAE7731A4340D08E
:1003A000009A62B3019A012A4FEA075215DC001B3A
:1003B00061EB02014FF0004202EA0752CDE9004230
:1003C000001C41F5801132462B4600F0DBF903B0EA
:1003D000BDE8F08F40462146F9E7001B61EB0201C2
:1003E000001C41F5801300185B412018A2F500178E
:1003F00047EB030140EAD570B6196D4111E06D0875
:100400004FEA360645EAC0754FEA0752001B61EB1A
:100410000201001C41F5801149084FEA3000001923
:10042000514132462B4603B0BDE8F04F00F09BB976
:100430000098012240000023D0EB020263EBE0733E
:10044000009821464FEAE074B8EB000061EB04012C
:10045000E9E783F000435BE781F0004158E72DE9CD
:10046000FE4F81EA030404F0004421F000410094AF
:100470004FF0000B23F0004350EA01045ED052EA33
:1004800003045BD0C3F30A54C1F30A552C44A4F20D
:10049000F3340194A0FB0254C1F3130141F4801121
:1004A000C3F3130343F4801301FB024400FB034E28
:1004B000840A970A44EA815447EA8357A4FB0768F1
:1004C00002958D0A05FB07854FEA932C04FB0C541B
:1004D0002705029D4FEA065847EA1637B5EB08058F
:1004E0006EEB070C870E920E47EA811742EA8312E1
:1004F000A7FB0201B6EB0B0164EB00042B0D43EAF2
:100500000C335E1844EB1C50DA465146E7FB0201FF
:10051000C5F313044FEA0B3343EA14534FEA043292
:10052000019C43EA0603A4F10C040294009CCDE96B
:1005300000B400F027F903B0BDE8F08F00200146B9
:10054000F9E72DE9F04D81EA030404F0004B21F0B6
:10055000004514464FF0000A23F0004150EA05021E
:1005600020D054EA01021DD0C5F30A570246C5F354
:100570001303C1F31300C1F30A5640F4801543F48A
:100580008013A7EB0608101BD64608F2FD3873EB64
:10059000050002D308F1010801E092185B41B8F1AF
:1005A000000F03DA00200146BDE8F08D00204FF473
:1005B0008011064684460EE0171B73EB050705D332
:1005C000121B63EB050306434CEA010C49084FEA92
:1005D000300092185B4150EA0107EDD152EA030066
:1005E00012D082EA040083EA0501084305D0101BFB
:1005F000AB4106D20122002306E000224FF0004367
:1006000002E06FF0010253101AEB06004CEB0851A8
:1006100010EB0A0041EB0B01BDE8F04D00F0A3B870
:10062000C10F80EAE0700844CA079623002100F059
:100630006CB896230022114600F067B80EB540F260
:10064000334102910021CDE900110A460B4600F02A
:1006500099F803B000BD20F00040C10DC0F31600B2
:1006600040F400007F2901DA00207047962903DC5E
:10067000C1F19601C840704796398840704701F033
:10068000004330B421F0004150EA010206D00A0DC7
:10069000A2F56072C1F31301002A02DC30BC002015
:1006A0007047440F44EAC104C100E01830BC00EBBD
:1006B000C25000F021B8202A04DB203A00FA02F1EF
:1006C000002070479140C2F1200320FA03F3194340
:1006D00090407047202A06DBCB17203A41FA02F0FF
:1006E00043EAE07306E041FA02F3D040C2F120028F
:1006F00091400843194670470029A8BF7047401C25
:10070000490008BF20F00100704710B4B0FA80FC27
:1007100000FA0CF050EA010404BF10BC704749B164
:10072000CCF1200421FA04F411FA0CF118BF0121D4
:1007300021430843A3EB0C01CB1D4FEA00614FEAB4
:10074000102042BF002010BC704700EBC350104483
:100750000029A4BF10BC7047401C490008BF20F00E
:10076000010010BC704710B5141E73F1000408DAC4
:10077000401C41F1000192185B411A4301D120F065
:10078000010010BD2DE9F04D92469B4611B1B1FA22
:1007900081F202E0B0FA80F220329046FFF78BFF40
:1007A00004460F4640EA0A0041EA0B0153465A4606
:1007B000084313D0114653EA010019D0C8F1400292
:1007C0005046FFF7AFFC05460E4650465946424696
:1007D000FFF771FF084305D0012004E020463946A9
:1007E000BDE8F08D0020054346EAE0762C43374310
:1007F0000A986305E40AA0EB08000022FD0A44EA17
:1008000047540A3002D500200146E9E701051019D6
:100810006941DDE9084500196941BDE8F04DA2E7ED
:10082000064C074D06E0E06840F0010394E807003D
:1008300098471034AC42F6D3FFF75CFCB83200089E
:10084000D83200080F490B785A1C02F0FF0C0E4AF0
:1008500081F800C0D05413780020552B01D00870C7
:100860007047BCF10B0FFBD35378532B07D1D2F851
:100870000230C1F80230D2F80620C1F80620087014
:10088000704700002C0000205C01002010B51E4CB9
:10089000002816D0012827D0022833D14FF07E52ED
:1008A0000121032002F05CFC00224FF4804120462D
:1008B00000F082F920460122BDE81040D10300F08B
:1008C0007BB94FF07E520121032002F049FC012246
:1008D0009103204600F070F92046BDE81040002248
:1008E0004FF4004100F068B900224FF480412046E7
:1008F00000F062F92046BDE8104000224FF40041AC
:1009000000F05AB910BD0000000C014070B513484A
:10091000846814F0FF4F1FD04068FFF781FE054642
:100920002146FFF776FCB0F17E5F04DDBDE8704044
:100930000020FFF7ABBF28462146FFF767FCB0F168
:100940007E5F04DDBDE870400220FFF79FBFBDE879
:1009500070400120FFF79ABF70BD000054000020D6
:1009600010B5144A002811780AD0012810D00228A6
:100970001FD102291DD01070BDE8104001F082BEC9
:10098000002916D000201070BDE8104001F08CBE88
:1009900001290ED001201070074C010300222046CF
:1009A00000F00AF9002261142046BDE8104000F072
:1009B00003B910BD54000020000C014031B500F017
:1009C00003F9044600F000F90099001B8842F9D3AE
:1009D00038BD00002DE9F84F00239C46DFF8CC819C
:1009E0000F2708F1040909F1040A0AF1040B012296
:1009F00002FA0CF60A683240B2427DD1DFF8B0E16B
:100A00004C68A4EB0E0574452BD00DDC032C34D0C0
:100A100005DC34B3012C19D0022C2FD11BE0112C92
:100A200016D0122C2AD119E0B5F5881F19D006DC92
:100A3000B5F5803F15D0B5F5801F1FD111E0B5F594
:100A4000001F0ED0B5F5041F18D10AE0CB6815E0E1
:100A5000CB681B1D12E0CB6808330FE0CB680C336A
:100A60000CE08B6823B1012B04D00823466105E01C
:100A7000042303E00823066100E00023B2F5807F31
:100A800001D2054601E000F1040502D24FEA8C04D0
:100A900003E0ACF108044FEA84042E6807FA04FE70
:100AA00026EA0E0603FA04F446EA04042C604C68B5
:100AB00014F0805F72D03F4CA56945F00105A56137
:100AC000A46904F0010400942CF0030404F18044B0
:100AD00004F58034A6684FEA8C754FEA157507FA5D
:100AE00005FE26EA0E0EA0F18046B6F584361AD031
:100AF000B6F5806619D000E050E0B6F5806616D0F5
:100B0000B6F5806615D0042606FA05F545EA0E0509
:100B1000A5604C6814F4803F0DD0D8F80040144311
:100B2000C8F800400CE00026EEE70126ECE70226BC
:100B3000EAE70326E8E7D8F800409443C8F8004005
:100B40004C6814F4003F05D0D9F800401443C9F8AC
:100B5000004004E0D9F800409443C9F800404C68D4
:100B600014F4801F05D0DAF800401443CAF800409E
:100B700004E0DAF800409443CAF800404C6814F4EA
:100B8000001F05D0DBF800402243CBF8002005E031
:100B9000DBF8004024EA0202CBF800200CF1010C43
:100BA000BCF1100FFFF423AFBDE8F88F0004014043
:100BB0000000111000100240002A01D001617047AE
:100BC0000904016170470000014800687047000097
:100BD0006400002002480168491C01607047000061
:100BE0006400002010B50748016841F01001016061
:100BF000032000F071F8002000F006F800F016F86D
:100C0000002010BD0020024010B5044600F006FA96
:100C10004FF47A72B0FBF2F000F070FF0022214630
:100C2000501E00F025F8002010BD000008B509484E
:100C3000816941F001018161806900F0010000904B
:100C4000032000F049F80022BDE808401146501E7C
:100C500000F00EB80010024000F01F01012202FA5D
:100C600001F14009800000F1E020C0F80011704758
:100C700010B4184B1B68C3F30223C3F1070CBCF17B
:100C8000040F01D94FF0040C1C1D072C01D20023C6
:100C900000E0DB1E012404FA0CFCACF1010C0CEAB0
:100CA0000101994004FA03F35B1E1A401143002826
:100CB00008DA00F00F0000F1E020090180F8141DAF
:100CC00010BC704700F1E020090180F8001410BC4E
:100CD000704700000CED00E000F00700064A1168C4
:100CE0004FF6FF03194041EA002040F0FD7040F04C
:100CF00080601060704700000CED00E02DE9F047C7
:100D000004460F46DFF80C93D9F80000012200F0EA
:100D1000070053040226C04D4FF0007C41F2883892
:100D2000B8427DD2D9F8000020F007003843C9F856
:100D30000000D9F8000000F00700B84202D00120FE
:100D4000BDE8F087207810F0020F05D06868A16830
:100D500020F0F00008436860207810F0010F00F0E8
:100D60003D81606801280BD0022820D096FAA6F1B8
:100D7000B1FA81F141F0200149092FD029682EE014
:100D800093FAA3F1B1FA81F141F02001490901D0B0
:100D9000296800E0696A93FAA3F3B3FA83F303F0D6
:100DA0001F039A40114226D10120BDE8F0879CFA2A
:100DB000ACF1B1FA81F141F02001490901D0296873
:100DC00000E0696A9CFAACF3B3FA83F303F01F0303
:100DD0009A4011420FD10120BDE8F087696A96FA66
:100DE000A6F3B3FA83F303F01F039A40114202D132
:100DF0000120BDE8F087696821F0030108436860BD
:100E0000FFF7E2FE0646606801280FD0022820D0D6
:100E1000686810F00C0F72D0FFF7D6FE801B00E060
:100E20002FE0404528D90320BDE8F087686800F02E
:100E30000C00042863D0FFF7C7FE801B404502D991
:100E40000320BDE8F087686800F00C000428F2D1A8
:100E5000C4E0686800F00C00082850D0FFF7B4FE2A
:100E6000801B404502D90320BDE8F087686800F088
:100E70000C000828F2D1B1E0686810F00C0FCBD15B
:100E8000ACE0207810F0020F05D06868A16820F06F
:100E9000F00008436860207810F0010F70D060689F
:100EA00001280BD0022820D096FAA6F1B1FA81F1E0
:100EB00041F02001490930D029682FE093FAA3F1CD
:100EC000B1FA81F141F02001490901D0296800E01F
:100ED000696A93FAA3F3B3FA83F303F01F039A400A
:100EE000114227D10120BDE8F0879CFAACF1B1FA9C
:100EF00081F141F02001490902D0296801E06DE04B
:100F0000696A9CFAACF3B3FA83F303F01F039A40C7
:100F100011420FD10120BDE8F087696A96FAA6F365
:100F2000B3FA83F303F01F039A40114202D1012068
:100F3000BDE8F087696821F0030108436860FFF7A6
:100F400043FE0646606801280DD002281FD068685D
:100F500010F00C0F32D0FFF737FE801B404529D927
:100F60000320BDE8F087686800F00C00042825D055
:100F7000FFF72AFE801B404503D90320BDE8F08718
:100F80001CE0686800F00C000428F1D116E06868E5
:100F900000F00C00082811D0FFF716FE801B40451A
:100FA00002D90320BDE8F087686800F00C0008282B
:100FB000F2D103E0686810F00C0FCCD1D9F8000032
:100FC00020F007003843C9F80000D9F8000000F00D
:100FD0000700B84202D00120BDE8F087207810F069
:100FE000040F05D06868E16820F4E0600843686099
:100FF000207810F0080F06D06868216920F460504E
:1010000040EAC10068600020FFF7FEFD0020BDE857
:10101000F0870000002002400010024010B500F0F0
:1010200043F808494968F02292FAA2F201F0F0016F
:10103000B2FA82F2D140044A515CC84003490860C8
:1010400010BD000000100240A8320008600000201F
:1010500010B5FFF7E3FF074949684FF4E06292FAE1
:10106000A2F201F4E061B2FA82F2D140024A515C8C
:10107000C84010BD00100240A832000810B5FFF7AC
:10108000CDFF074949684FF4605292FAA2F201F489
:101090006051B2FA82F2D140024A515CC84010BDA0
:1010A00000100240A832000885B01DA003688268C5
:1010B0004168C06801930392029104901CA00068EB
:1010C00000901C4B59681C4801F00C02042A21D0E6
:1010D000082A1FD14FF4701C9CFAACFC01F470126A
:1010E000BCFA8CFC22FA0CF20DF1040C1CF8022064
:1010F00011F4803F10D059684FF4003393FAA3F3F2
:1011000001F40031B3FA83F3D9401DF80110B0FBAC
:10111000F1F0504305B07047084805B050437047A0
:1011200002030405060708090A0B0C0D0E0F101028
:10113000010200000010024000127A0000093D0088
:101140002DE9F84F0446FC4D207841F2883710F025
:10115000010F4FF0010600F0018168684FF400387C
:1011600000F00C00042808D0686800F00C00082883
:101170001ED1686810F4803F1AD098FAA8F0B0FA2F
:1011800080F040F02000400901D0286800E0686A43
:1011900098FAA8F1B1FA81F101F01F0106FA01F104
:1011A000084270D0606800286DD10120BDE8F88F3A
:1011B000286820F480302860286820F48020286087
:1011C000FFF702FD814698FAA8F0B0FA80F040F0EF
:1011D0002000400901D0286800E0686A98FAA8F168
:1011E000B1FA81F101F01F0106FA01F108421DD0A8
:1011F000FFF7EAFCA0EB0900B84202D90320BDE8E2
:10120000F88F98FAA8F0B0FA80F040F0200040097A
:1012100001D0286800E0686A98FAA8F1B1FA81F173
:1012200001F01F0106FA01F10842E1D16068B0F552
:10123000803F1AD0F0B1B0F5A02F25D0286820F457
:1012400080302860286820F4802028606068C0B35F
:10125000FFF7BAFC814698FAA8F0B0FA80F040F0A7
:101260002000400919D0286818E0286840F4803030
:101270002860EBE7286820F480302860286820F494
:1012800080202860E2E769E0286840F48020286038
:10129000286840F480302860D8E7686A98FAA8F196
:1012A000B1FA81F101F01F0106FA01F1084255D1AE
:1012B000FFF78AFCA0EB0900B84203D90320BDE880
:1012C000F88F15E098FAA8F0B0FA80F040F020000E
:1012D000400901D0286800E0686A98FAA8F1B1FADC
:1012E00081F101F01F0106FA01F10842E0D035E07A
:1012F000FFF76AFC814698FAA8F0B0FA80F040F057
:101300002000400901D0286800E0686A98FAA8F136
:10131000B1FA81F101F01F0106FA01F108421DD076
:10132000FFF752FCA0EB0900B84202D90320BDE848
:10133000F88F98FAA8F0B0FA80F040F02000400949
:1013400001D0286800E0686A98FAA8F1B1FA81F142
:1013500001F01F0106FA01F10842E1D120784FF0B7
:10136000000910F0020F4FF002084ED068684FF0ED
:10137000F80B10F00C0F21D0686800F00C00082862
:1013800003D1686810F4803F18D0206988B396FABA
:10139000A6F0B0FA80F0800000F1844000F58400EF
:1013A0000660FFF711FC824698FAA8F0B0FA80F0C8
:1013B00040F02000400929D0286828E098FAA8F0D9
:1013C000B0FA80F040F02000400901D0286800E029
:1013D000686A98FAA8F1B1FA81F101F01F0106FAE2
:1013E00001F1084206D02069012803D00120BDE8A0
:1013F000F88F40E028689BFAABF26169B2FA82F29A
:1014000020F0F80091400843286075E0686A98FA77
:10141000A8F1B1FA81F101F01F0106FA01F10842C9
:101420001DD1FFF7D1FBA0EB0A00642802D90320ED
:10143000BDE8F88F98FAA8F0B0FA80F040F02000EC
:10144000400901D0286800E0686A98FAA8F1B1FA6A
:1014500081F101F01F0106FA01F10842E1D028688C
:101460009BFAABF26169B2FA82F220F0F800914087
:101470000843286040E096FAA6F0B0FA80F08000B9
:1014800000F1844000F58400C0F80090FFF79CFB59
:10149000824698FAA8F0B0FA80F040F020004009A7
:1014A00001D0286800E0686A98FAA8F1B1FA81F1E1
:1014B00001F01F0106FA01F108421DD0FFF784FB7D
:1014C000A0EB0A00642802D90320BDE8F88F98FA3F
:1014D000A8F0B0FA80F040F02000400901D0286860
:1014E00000E0686A98FAA8F1B1FA81F101F01F01F1
:1014F00006FA01F10842E1D1207810F0080F61D01E
:10150000A069D0B396FAA6F0B0FA80F0800000F19E
:10151000844000F58400C0F88064FFF755FB8246E4
:1015200098FAA8F0B0FA80F040F06000B6EB501FD7
:1015300004D128680EE000000010024098FAA8F0DC
:10154000B0FA80F040F06000B8EB501F01D1286A7B
:1015500000E0686A98FAA8F1B1FA81F101F01F0180
:1015600006FA01F108422AD1FFF72EFBA0EB0A0090
:10157000642803D90320BDE8F88F24E098FAA8F086
:10158000B0FA80F040F06000B6EB501F01D128683F
:101590000BE098FAA8F0B0FA80F040F06000B8EBE9
:1015A000501F01D1286A00E0686A98FAA8F1B1FAE0
:1015B00081F101F01F0106FA01F10842D4D00120A7
:1015C000FFF7FCF958E096FAA6F0B0FA80F0800038
:1015D00000F1844000F58400C0F88094FFF7F4FA2D
:1015E000824698FAA8F0B0FA80F040F06000B6EBBE
:1015F000501F01D128680BE098FAA8F0B0FA80F0EB
:1016000040F06000B8EB501F01D1286A00E0686A22
:1016100098FAA8F1B1FA81F101F01F0106FA01F17F
:10162000084229D0FFF7D0FAA0EB0A00642802D9BB
:101630000320BDE8F88F98FAA8F0B0FA80F040F0E7
:101640006000B6EB501F01D128680BE098FAA8F0B3
:10165000B0FA80F040F06000B8EB501F01D1286A6A
:1016600000E0686A98FAA8F1B1FA81F101F01F016F
:1016700006FA01F10842D5D1207810F0040F70D09D
:10168000E86940F08050E861E86900F0805000901F
:10169000DFF844B4DBF8000040F48070CBF80000C1
:1016A000FFF792FA8246DBF8000010F4807F0DD13C
:1016B000FFF78AFAA0EB0A00642802D90320BDE8EC
:1016C000F88FDBF8000010F4807FF1D0286A20F05A
:1016D00001002862286A20F004002862FFF774FAEB
:1016E000824698FAA8F0B0FA80F040F04000B6EBDD
:1016F000501F01D128680BE098FAA8F0B0FA80F0EA
:1017000040F04000B8EB501F01D1286A00E0686A41
:1017100098FAA8F1B1FA81F101F01F0106FA01F17E
:1017200008422AD0FFF750FAA0EB0A00B84202D9CB
:101730000320BDE8F88F98FAA8F0B0FA80F040F0E6
:101740004000B6EB501F01D128680CE098FAA8F0D1
:10175000B0FA80F040F04000B8EB501F02D1286A88
:1017600001E0CFE0686A98FAA8F1B1FA81F101F0DE
:101770001F0106FA01F10842D4D1E06801281AD00D
:10178000F0B1052825D0286A20F001002862286AD7
:1017900020F004002862E06878B3FFF715FA82466B
:1017A00098FAA8F0B0FA80F040F04000B6EB501F75
:1017B00018D1286823E0286A40F001002862EAE78F
:1017C000286A20F001002862286A20F004002862BC
:1017D000E1E7286A40F004002862286A40F001002E
:1017E0002862D8E798FAA8F0B0FA80F040F04000FC
:1017F000B8EB501F02D1286A01E035E0686A98FA18
:10180000A8F1B1FA81F101F01F0106FA01F10842D5
:1018100078D1FFF7D9F9A0EB0A00B84202D903202A
:10182000BDE8F88F98FAA8F0B0FA80F040F04000D8
:10183000B6EB501F01D128680BE098FAA8F0B0FA77
:1018400080F040F04000B8EB501F01D1286A00E062
:10185000686A98FAA8F1B1FA81F101F01F0106FA5D
:1018600001F10842D5D04DE0FFF7AEF9824698FA73
:10187000A8F0B0FA80F040F04000B6EB501F01D164
:1018800028680BE098FAA8F0B0FA80F040F0400029
:10189000B8EB501F01D1286A00E0686A98FAA8F1F5
:1018A000B1FA81F101F01F0106FA01F1084229D0D5
:1018B000FFF78AF9A0EB0A00B84202D90320BDE87D
:1018C000F88F98FAA8F0B0FA80F040F04000B6EB3C
:1018D000501F01D128680BE098FAA8F0B0FA80F008
:1018E00040F04000B8EB501F01D1286A00E0686A60
:1018F00098FAA8F1B1FA81F101F01F0106FA01F19D
:101900000842D5D1E069D0B3696801F00C0108291B
:101910007ED04FF0807A4FF00078022817D09AFAE4
:10192000AAF0B0FA80F0800000F1844000F5840055
:10193000C0F80090FFF748F9044698FAA8F0B0FA0A
:1019400080F040F0200040097ED0286897E09AFAA5
:10195000AAF0B0FA80F0800000F1844000F5840025
:10196000C0F80090FFF730F9074698FAA8F0B0FAEF
:1019700080F040F02000400902D0286801E0A5E096
:10198000686A98FAA8F1B1FA81F101F01F0106FA2C
:1019900001F108421CD0FFF717F9C01B642802D9D7
:1019A0000320BDE8F88F98FAA8F0B0FA80F040F074
:1019B0002000400901D0286800E0686A98FAA8F180
:1019C000B1FA81F101F01F0106FA01F10842E2D1FA
:1019D000206AB0F5803F05D16868A16820F4003026
:1019E00008436860616A206A0843696821F47411D9
:1019F000084368609AFAAAF0B0FA80F0800000F11B
:101A0000844000F584000660FFF7DEF8044600E03D
:101A10005FE098FAA8F0B0FA80F040F020004009AA
:101A200001D0286800E0686A98FAA8F1B1FA81F15B
:101A300001F01F0106FA01F1084247D1FFF7C4F88F
:101A4000001B642804D900E018E00320BDE8F88FEB
:101A500098FAA8F0B0FA80F040F02000400901D0D8
:101A6000296800E0696A98FAA8F0B0FA80F000F0FE
:101A70001F0006FA00F00142E0D027E0686A98FAF9
:101A8000A8F1B1FA81F101F01F0106FA01F1084253
:101A90001CD0FFF799F8001B642802D90320BDE889
:101AA000F88F98FAA8F0B0FA80F040F020004009D2
:101AB00001D0296800E0696A98FAA8F0B0FA80F0CD
:101AC00000F01F0006FA00F00142E2D10020BDE85C
:101AD000F88F0120BDE8F88F007000404FF0E02142
:101AE000042804D0086920F00400086170470869E0
:101AF00040F004000861704770470000401EB0F1DC
:101B0000807F01D3012070474FF0E0214861044AF3
:101B1000F0201070002088610720086100207047C5
:101B200023ED00E010B5FFF7E7FF10BD70477047E9
:101B300010B490F83820012A2AD0012380F83830D8
:101B4000022280F839200268D2F804C02CF0700C10
:101B5000C2F804C00268D2F804C00C684CEA040C55
:101B6000C2F804C00268D2F808C02CF0800CC2F899
:101B700008C00268D2F808C049684CEA01019160C7
:101B800080F83930002180F8381010BC00207047F0
:101B900010BC0220704710B50446002C03D094F806
:101BA000390010B107E0012010BD002084F8380092
:101BB000204600F00DF8022084F83900211D20682D
:101BC00000F050FF012084F83900002010BD000013
:101BD00070B586B001680025264A2748B1F1804FCC
:101BE0002ED0A1F18043B3F5806327D1D16941F0B4
:101BF0000201D161D16901F002010191C02102917C
:101C000002240394059402A9FEF7E4FE0120029049
:101C100003940594194E02A93046FEF7DBFE0294A8
:101C20000395049502A93046FEF7D4FE0022114622
:101C30001D20FFF71DF81D20FFF70EF806B070BD40
:101C4000D16941F00101D161D16901F00101019136
:101C50000F2102910395049502A9FEF7BBFE002215
:101C600001211C20FFF704F81C20FEF7F5FF06B049
:101C700070BD00000010024000080140000C01404F
:101C800070B5044694F83800012818D0012584F86E
:101C90003850022084F839002068826822F07702E8
:101CA00022F47F428260086850283AD00EDC202857
:101CB0005FD006DC002852D0102863D154E0022007
:101CC00070BD30285AD040285CD13EE0602832D028
:101CD00070280CD0B0F5805F03D0B0F5005F51D113
:101CE00013E02068816821F0070181604AE0CB6839
:101CF0004A688968206800F0F6FE2068816821F053
:101D0000770141F0770181603CE0CB684A688968DF
:101D1000206800F0E8FE2068816841F4804181601D
:101D200030E0CA684968206800F0B3FF502120689D
:101D300000F0E4FE26E0CA684968206800F0EBFF86
:101D40006021206800F0DAFE1CE0CA68496820685B
:101D500000F09FFF4021206800F0D0FE12E000213B
:101D6000206800F0CBFE0DE01021206800F0C6FED8
:101D700008E02021206800F0C1FE03E03021206847
:101D800000F0BCFE84F83950002084F8380070BDA3
:101D90002DE9F047017E0026874C884D4FF0010861
:101DA0004FF0020A4FF6FF7701291CD0022951D0CB
:101DB000042975D0082934D10168B1F1804F30D1A0
:101DC00005F1300999F8001000296AD0012928D1BD
:101DD0000C2100F05DFBC9F80800D9F80410884216
:101DE0007AD9401AD0E0297851B1012919D10021BE
:101DF00000F04EFBA8606968884214D9401A15E0CB
:101E0000002100F045FB6860C4F800A000226A4988
:101E10006B4800F0DBF80021694800F053F985F8C1
:101E20000080BDE8F087791A491C0844E860FFF794
:101E30000FF9E968B0FBF1F0E860266000225E4926
:101E40005F4800F0C3F800215D4800F03BF92E70B8
:101E5000BDE8F087DFF86C9199F8001061B10129B5
:101E6000F6D1042100F014FBC9F80800D9F80410D9
:101E7000884217D9401A18E0042100F009FBC9F87C
:101E80000400C4F800A004224B494D4800F09EF81D
:101E900004214B4800F016F985F80080BDE8F08772
:101EA0001BE05AE0791A491C0844C9F80C00FFF7F6
:101EB000CFF8D9F80C10B0FBF1F0C9F80C0026608F
:101EC00004223D493E4800F081F804213C4800F0DE
:101ED000F9F82E70BDE8F08753E0DFF8EC9099F840
:101EE000001061B10129F5D1082100F0D1FAC9F83B
:101EF0000800D9F80410884215D9401A16E00821C4
:101F000000F0C6FAC9F80400C4F800A008222A4963
:101F10002B4800F05BF80821294800F0D3F885F839
:101F20000080BDE8F087791A491C0844C9F80C0004
:101F3000FFF78EF8D9F80C10B0FBF1F0C9F80C00DF
:101F4000266008221C491E4800F040F808211C4861
:101F500000F0B8F82E70BDE8F0870C2100F098FA78
:101F6000C9F80400C4F800A00C221349144800F07A
:101F70002DF80C21124800F0A5F885F80080BDE886
:101F8000F087791A491C0844C9F80C00FFF760F87B
:101F9000D9F80C10B0FBF1F0C9F80C0026600C2247
:101FA0000549074800F012F80C21054800F08AF8AE
:101FB0002E70BDE8F08700001C00002068000020A3
:101FC000A8000020780000208800002070B504469A
:101FD0000D4694F83800012821D0012684F8386095
:101FE000022084F83900E2B1042A2BD0082A3BD021
:101FF000EB686A682968206800F0DDFE2068C16926
:1020000021F44061C1612068C169AA6841EA0221E6
:10201000C16184F83960002084F8380070BD022066
:1020200070BDEB686A682968206800F045FE20688A
:10203000816921F00C01816120688169AA681143DE
:102040008161E6E7EB686A682968206800F075FE40
:102050002068816921F44061816120688169AA68F2
:1020600041EA02218161D4E7EB686A682968206847
:1020700000F083FE2068C16921F00C01C161206875
:10208000C169AA681143C161C3E710B50446002CB9
:1020900003D094F8390010B107E0012010BD0020F2
:1020A00084F83800204600F00CF8022084F839004B
:1020B000211D206800F0D6FC012084F839000020A2
:1020C00010BD704710B504460122206800F0FEFCE8
:1020D0002068016841F001010160002010BD10B5C9
:1020E00004460029226806D0042909D008290CD00A
:1020F0000C2913D10EE0D06840F00200D0600DE052
:10210000D06840F00400D06008E0D06840F00800DB
:10211000D06003E0D06840F01000D0600122206859
:1021200000F0D4FC2068016841F00101016000204A
:1021300010BD70B50446206801694FF0000511F02C
:10214000020F17D0C16811F0020F13D0E91E016110
:10215000012020762068806910F0030F03D020460C
:10216000FFF716FE05E0204600F09DF8204600F03F
:102170004DF925762068016911F0040F18D0C16867
:1021800011F0040F14D06FF00401016102202076D9
:102190002068806910F4407F03D02046FFF7F8FDE7
:1021A00005E0204600F07FF8204600F02FF9257664
:1021B0002068016911F0080F18D0C16811F0080FEC
:1021C00014D06FF008010161042020762068C069F6
:1021D00010F0030F03D02046FFF7DAFD05E020469C
:1021E00000F061F8204600F011F9257620680169B9
:1021F00011F0100F18D0C16811F0100F14D06FF04B
:1022000010010161082020762068C06910F4407F29
:1022100003D02046FFF7BCFD05E0204600F043F860
:10222000204600F0F3F825762068016911F0010FCF
:1022300009D0C16811F0010F05D06FF001010161F3
:10224000204600F024F92068016911F0800F09D0C0
:10225000C16811F0800F05D06FF080010161204648
:10226000FFF764FC2068016911F0400F09D0C168D4
:1022700011F0400F05D06FF040010161204600F0E1
:1022800029F92068016911F0200F0BD0C16811F005
:10229000200F07D06FF0200101612046BDE870409B
:1022A000FFF745BC70BD704770B504460D4694F805
:1022B000380001280DD0012684F83860022084F807
:1022C000390042B1042A1AD0082A2DD00C2A53D141
:1022D0003EE0022070BD2946206800F017FC20680F
:1022E000816941F0080181612068816921F0040160
:1022F0008161206881692A69114381613CE0294636
:10230000206800F037FC2068816941F40061816138
:102310002068816921F480618161206881692A696E
:1023200041EA0221816127E02946206800F056FC3D
:102330002068C16941F00801C1612068C16921F0CC
:102340000401C1612068C1692A691143C16113E0B8
:102350002946206800F076FC2068C16941F40061DC
:10236000C1612068C16921F48061C1612068C169CF
:102370002A6941EA0221C16184F83960002084F8A9
:10238000380070BD10B50446002C03D094F8390015
:1023900010B107E0012010BD002084F8380020466D
:1023A00000F00CF8022084F83900211D206800F0AC
:1023B00059FB012084F83900002010BD00B587B01A
:1023C0000068A0F18041B1F5006119D10D48C169E3
:1023D00041F00401C161C06900F004000190C02017
:1023E000029002200390059002A90748FEF7F2FA36
:1023F000002211461E20FEF73BFC1E20FEF72CFC9F
:1024000007B000BD00100240000C0140704710B53D
:1024100004460122206800F059FB2068A0F18041A9
:10242000B1F5963103D1416C41F40041416420681B
:10243000016841F001010160002010BD10B50446A3
:102440000022206800F042FB216841F21112931033
:10245000A1F18040B0F5963009D1086A104206D14A
:10246000086A184203D1486C20F400404864206890
:10247000016A114206D1016A194203D1016821F0B3
:1024800001010160012084F83900002010BD70476F
:10249000002290F83830012B0AD0012380F8383020
:1024A00041B1042909D008290AD00C290DD10AE02C
:1024B0000220704701684A6B07E001688A6B04E0FC
:1024C0000168CA6B01E001680A6C002180F83810CD
:1024D000104670477047704738B504462168086851
:1024E00000F00100CA6802F48072002807D032B1FF
:1024F000086848680090E06B40F00100E0630868FD
:10250000C0F34002486900F001003AB130B10A68F6
:102510004A680092E26B42F00402E2630A68C2F386
:1025200080023AB130B10A684A680092E26B42F028
:102530000202E2630A68C2F3C0023AB130B108682D
:1025400048680090E06B40F00800E0630868C0F362
:102550004010C96801F0200118B111B1204600F007
:1025600064FC20680168C1F3C011C06800F08000FD
:1025700019B110B1204600F041FD20680168C1F397
:102580008011C06800F0400019B110B1204600F081
:1025900032FCE06B002805D0012084F83900204689
:1025A000FFF799FF38BD70B50446002C04D094F8AD
:1025B0003900002510B106E0012070BD84F83850C4
:1025C000204600F021F8022084F839002068C16814
:1025D00021F40051C160204600F080FC20680169B0
:1025E00021F4904101612068416921F02A01416193
:1025F0002068C16841F40051C160E563012084F89E
:102600003900002070BD000010B586B00068A0F150
:102610008041B1F59C3125D11348816941F4804155
:102620008161806900F4804001904FF40070029055
:1026300002200390032005900C4C02A92046FEF7CF
:10264000C9F92115029100210391049102A92046A4
:10265000FEF7C0F9002211462520FEF709FB2520D0
:10266000FEF7FAFA06B010BD001002400008014063
:1026700002480068C0B2FEF7E5B800000438014027
:102680007047000010B5074C00224FF480512046DF
:10269000FEF792FA20460122BDE810405103FEF7F2
:1026A0008BBA0000000C014010B5064C012211034A
:1026B0002046FEF781FA002261142046BDE8104052
:1026C000FEF77ABA000C01400348002141608160A6
:1026D000C1600170016170473800002030B587B0DB
:1026E0001748816941F020018161816901F0200171
:1026F0000191816941F004018161816901F0040166
:102700000191816941F008018161806900F0080050
:1027100001904FF470400290012503950224059426
:1027200002A90848FEF756F94FF46140029003955C
:10273000059402A90448FEF74DF907B030BD00002A
:1027400000100240000C01400008014010B58AB0A2
:102750001C484FF0804101604721416000248460A3
:102760006321C1600461FFF716FA4FF480500690B0
:1027700006A91448FFF784FA1248FFF786FC049470
:10278000059404A90F48FFF7D3F9009401200190A4
:1027900002940F200390002269460A48FFF716FCB6
:1027A000042269460748FFF711FC082269460548DC
:1027B000FFF70CFC0C2269460248FFF707FC0AB041
:1027C00010BD0000A800002030B593B02648254970
:1027D0000160472141600024846040F2E731C1601C
:1027E0000461FFF7D8F94FF480500E900EA91E48EF
:1027F000FFF746FA1C48FFF7C5FD1B48FFF745FCED
:102800000C940D940CA91848FFF792F960200590DC
:102810000125069507940994002205A91248FFF79F
:1028200043FD00211048FFF7F2FD042205A90E48E0
:10283000FFF73AFD04210C48FFF7E9FD082205A93E
:102840000948FFF731FD08210748FFF7E0FD009434
:102850000195029403940C2269460348FFF7B6FBE6
:1028600013B030BD00040040E400002010B58AB071
:10287000174816490160472141600024846044F6EE
:102880001F61C1600461FFF77DFD0894099408A9E8
:102890000F48FFF74DF96020019040F2DB500290A5
:1028A00003940594002201A90948FFF7FDFC0021CB
:1028B0000748FFF7ACFD042201A90548FFF7F4FC27
:1028C00004210348FFF7A3FD0AB010BD0008004033
:1028D000200100200848074901604FF4E1314160C0
:1028E00000218160C16001610C2242618161C1618E
:1028F000FFF759BE003801405802002010B5FDF71F
:102900009DFE0022074BFDF7AAFD0022064BFDF7B6
:1029100018FE0022054BFDF7FBFCBDE81040FDF75B
:10292000AEBE00000000F83F0080564000001E4090
:1029300010B504460846FFF7E1FF44B1012C0DD164
:1029400002460121BDE81040042000F009BC024607
:102950000221BDE81040042000F002BC10BD0000C0
:102960000649C96801600649C96841600549C968E6
:1029700081600549C968C160704700006800002097
:1029800078000020880000209800002010B5FEF795
:1029900021F9BDE81040FFF7C5B830B591B001206E
:1029A0000690000407900024089402250D950E90CF
:1029B0004FF4E0100F9006A8FEF7C2FB052001902F
:1029C00002950394680204900594022101A8FEF781
:1029D00095F9FEF723FB4FF47A71B0FBF1F0FFF7A6
:1029E0008DF80420FFF77AF800221146501EFEF7FA
:1029F0003FF911B030BD00000E48016841F00101FF
:102A0000016041680C4A11404160016821F41021C5
:102A100021F080710160016821F48021016041682A
:102A200021F4FE0141604FF41F0181600349C0039E
:102A300008607047001002400000FFF808ED00E059
:102A40000148FFF776BB0000A80000200148FFF70F
:102A500070BB0000E40000200148FFF76ABB0000E3
:102A60002001002030B40268DFF854C0154C164B2A
:102A7000604506D0B0F1804F03D0A04201D098420B
:102A800003D122F070024D682A43604506D0B0F1B0
:102A9000804F03D0A04201D0984203D122F440726B
:102AA000CB681A4302608A68C2620A688262604523
:102AB00001D1096901630121416130BC7047000007
:102AC000002C0140000400400008004001238B401E
:102AD000D0F820C02CEA03030362036A02FA01F172
:102AE000194301627047D0F808C02CF47F4C42EAC9
:102AF0000322114341EA0C0181607047826822F091
:102B00007002114341F007018160704710B4026AFE
:102B100022F001020262036A4268D0F818C02CF069
:102B2000700C2CF0030C0C6844EA0C0C23F002032C
:102B30008C6823430E4CA04206D123F00803CC68D6
:102B400044EA030323F0040309D122F4807222F43F
:102B500000724C6944EA02028C6944EA0202426053
:102B6000C0F818C049684163036210BC7047000098
:102B7000002C014010B4026A22F010020262036AC3
:102B80004268D0F818C02CF4E04C2CF4407C0C685F
:102B90004CEA042C23F020038C6843EA04130E4C07
:102BA000A04206D123F08003CC6843EA041323F04B
:102BB000400309D122F4806222F400624C6942EAA7
:102BC00084028C6942EA84024260C0F818C04968F5
:102BD0008163036210BC7047002C014010B4026A8C
:102BE00022F480720262036A4268D0F81CC02CF0A2
:102BF000700C2CF0030C0C6844EA0C0C23F40073EA
:102C00008C6843EA04230E4CA04206D123F40063EF
:102C1000CC6843EA042323F4806309D122F4805270
:102C200022F400524C6942EA04128C6942EA04120E
:102C30004260C0F81CC04968C163036210BC7047A1
:102C4000002C014010B4026A22F480520262036A2E
:102C50004268D0F81CC02CF4E04C2CF4407C0C688A
:102C60004CEA042C23F400538C6843EA0433A0F1AB
:102C70008044B4F5963404D122F480424C6942EA8F
:102C800084124260C0F81CC049680164036210BC31
:102C90007047036AD0F820C02CF0010CC0F820C0A7
:102CA000D0F818C02CF0F00C4CEA021223F00A0302
:102CB000194382610162704730B4D0F820C02CF013
:102CC000010CC0F820C0D0F818C0046AA0F18045FB
:102CD000B5F596351AD0B0F1804F17D015F594356B
:102CE00014D0B5F5806511D04CF0010222F0F0024D
:102CF0004FF0F00C0CEA03131A4324F00A0301F01E
:102D00000A0119438261016230BC70472CF0030C48
:102D10004CEA0202EAE7036A23F010030362D0F8E8
:102D200018C0036A2CF4704C4CEA023223F0A00362
:102D300043EA011182610162704710B4D0F820C0EB
:102D40002CF0100CC0F820C08469D0F820C024F406
:102D5000407444EA022222F470424FF4704404EAC0
:102D600003331A432CF0A0034FF0A00C0CEA01111E
:102D700019438261016210BC704710B4D0F820C0C2
:102D80002CF4807CC0F820C0C469D0F820C024F0A6
:102D90000304224322F0F002F02404EA03131A434E
:102DA0002CF420634FF4206C0CEA01211943C2611A
:102DB000016210BC704710B4D0F820C02CF4805CC5
:102DC000C0F820C0C469D0F820C024F4407444EA9C
:102DD000022222F470424FF4704404EA03331A438F
:102DE0002CF420434FF4204C0CEA01311943C2610A
:102DF000016210BC704710B50168CA6822F0400239
:102E0000CA6090F8391032290BD001684A6922F063
:102E100001024A61012180F83910FFF731FC0020DE
:102E200010BD222180F83910F7E710B590F839105D
:102E3000222903D0322901D0022010BD8168B1F5CA
:102E4000805F11D0016919B30168496801F07F0200
:102E5000816A4B1C83620A70C18D491E0904090CEA
:102E6000C1851CD0002010BD816A02693AB1026898
:102E70005268D2B20A80816A491C8162ECE702681A
:102E80005268C2F308020A80816A891C8162E3E702
:102E900001684A68816A4B1C83620A70DCE701683A
:102EA000CA6822F02002CA6090F83910322910D086
:102EB0000168CA6822F48072CA6001684A6922F017
:102EC00001024A61012180F83910FFF7D1FB00208F
:102ED00010BD122180F83910F7E700002DE9F0410C
:102EE000044620680169E26821F440511143016100
:102EF0002169A0680843616901432068C26822F41F
:102F0000037222F4A0521143C16020684169A26992
:102F100021F44071114341612068374D3226A0F100
:102F20008041B1F59C3133D0FEF792F800EBC0013F
:102F300001EB001061688900B0FBF1F0A5FB001007
:102F40004709FEF785F800EBC00101EB001061684E
:102F50008900B0FBF1F8FEF77BF800EBC00101EB54
:102F6000001061688900B0FBF1F0A5FB001040097A
:102F70006FF01801484308EB800006EB0010A5FB3A
:102F800000102168400967F31F108860BDE8F081D8
:102F9000FEF774F800EBC00101EB001061688900D6
:102FA000B0FBF1F0A5FB00104709FEF767F800EB56
:102FB000C00101EB001061688900B0FBF1F8FEF779
:102FC0005DF800EBC00101EB001061688900B0FB07
:102FD000F1F0A5FB001040096FF01801484308EB21
:102FE000800006EB0010A5FB00102168400967F384
:102FF0001F108860BDE8F0811F85EB5190F83910F3
:10300000122903D0322901D0022070478168B1F51E
:10301000805F0CD0016A4A1C026202680978516024
:10302000C18C491E0904090CC18410D019E0016A41
:1030300002680988C1F308015160016919B1016A88
:10304000491C0162ECE7016A891C0162E8E701683A
:10305000CA6822F08002CA600068C16841F040017D
:10306000C1600020704700000148FFF735BA00003A
:103070005802002002E008C8121F08C1002AFAD135
:1030800070477047002001E001C1121F002AFBD1E8
:103090007047A0F58A418839642901D8002070471B
:1030A000A0F5B8419439642901D801207047A0F5F2
:1030B0000A404838642801D8022070470020704731
:1030C00010B500210A48FFF70AF804210848FFF765
:1030D00006F808210648FFF702F80C210448FEF71D
:1030E000FEFFBDE810400C210248FEF7F8BF0000CB
:1030F000A8000020E4000020FDF774FDFFF74DFC60
:10310000FFF7ECFAFFF722FBFFF75EFBFFF7AEFBE2
:10311000FFF7E0FB4FF47A70FDF750FCFFF7D4FAAD
:10312000FFF7CEFF6420FDF749FC044C0348FFF78E
:1031300017FC94E80F0000F06BF8F7E79802002006
:1031400010B4019C914203DD1FFA81FC11466246D6
:10315000E31A5843521AB0FBF2F0084410BC70470F
:1031600070B590B00C461646032802D0042815D13D
:103170000AE03922224901A8FCF7E4FF204890F830
:1031800039008DF83D0009E039221E4901A8FCF7FD
:10319000D9FF1C4890F839008DF83D00012C06D06D
:1031A000022C06D0032C06D0042C07D105E0002504
:1031B00004E0042502E0082500E00C25294601A8CA
:1031C000FFF73CF90498FDF734FA3146FDF724F88F
:1031D0004FF07E51FCF7C8FF0B49FDF74FF8FDF7A4
:1031E0003AFA0A4980B2401E48602A4601A8FFF711
:1031F0005BF8294601A8FFF70AF910B070BD00007E
:10320000E4000020200100200000C842000000204F
:103210003FB581B02148B0F90000FDF701FA6FF029
:103220000E01FDF769F81E49FCF7F6FF1D4C206101
:103230001E2000906FF01D0348F6482244F288518A
:103240000298FFF77DFF6060B4250095002348F6E3
:10325000482244F288510398FFF772FFA06000955E
:10326000002348F6482244F288510498FFF768FF8B
:10327000E060019880B2FFF70CFF2070FDF746FB7D
:10328000217A0120FFF754FB217B0020FFF750FB40
:10329000207805B0BDE83040FDF762BB4C0000204F
:1032A0000000344338000020000000000102030445
:1032B0000102030406070809D832000800000020B4
:1032C00068000000743000084033000868000020E7
:1032D000400600008430000860000000000000008C
:1032E00000000000000000000000000000000000DE
:1032F00000000000000000000100000000000000CD
:103300000F000000000000000000000000000000AE
:1033100000000000000000000000000000000000AD
:10332000000000000000000000000000000000009D
:10333000000000000000000000A24A04000000009D
:04000005080000ED02
:00000001FF
