:020000040800F2
:10000000B806002001010008090100080B010008E2
:100010000D0100080F010008110100080000000098
:1000200000000000000000000000000013010008B4
:10003000150100080000000017010008492300080E
:100040001B0100081B0100081B0100081B01000820
:100050001B0100081B0100081B0100081B01000810
:100060001B0100081B0100081B0100081B01000800
:100070001B0100081B0100081B0100081B010008F0
:100080001B0100081B0100081B0100081B010008E0
:100090001B0100081B0100081B0100081B010008D0
:1000A0001B0100081B0100081B0100081B010008C0
:1000B000FD23000809240008152400081B0100087E
:1000C0001B0100081B0100081B0100081B010008A0
:1000D0001B010008052B00081B0100081B0100087C
:1000E0001B0100081B0100081B010008DFF80CD0F1
:1000F00000F018F800480047752B0008B8060020EB
:100100000648804706480047FEE7FEE7FEE7FEE7B1
:10011000FEE7FEE7FEE7FEE7FEE7FEE7B5230008A1
:10012000ED000008064C074D06E0E06840F00103D2
:1001300094E8070098471034AC42F6D3FFF7DAFF93
:10014000F02B0008102C00080E490B785A1C02F006
:10015000FF0C0D4A81F800C0D05413780020552BB5
:1001600001D008707047BCF10B0FFBD35378532BB1
:1001700005D1D2F802308B60D2F80620CA60087030
:10018000704700002C0000206801002031B500F00D
:10019000FBF8044600F0F8F80099001B8842F9D3F8
:1001A00038BD00002DE9F84F00239C46DFF8CC81D4
:1001B0000F2708F1040909F1040A0AF1040B0122CE
:1001C00002FA0CF60A683240B2427DD1DFF8B0E1A3
:1001D0004C68A4EB0E0574452BD00DDC032C34D0F9
:1001E00005DC34B3012C19D0022C2FD11BE0112CCB
:1001F00016D0122C2AD119E0B5F5881F19D006DCCB
:10020000B5F5803F15D0B5F5801F1FD111E0B5F5CC
:10021000001F0ED0B5F5041F18D10AE0CB6815E019
:10022000CB681B1D12E0CB6808330FE0CB680C33A2
:100230000CE08B6823B1012B04D00823466105E054
:10024000042303E00823066100E00023B2F5807F69
:1002500001D2054601E000F1040502D24FEA8C0408
:1002600003E0ACF108044FEA84042E6807FA04FEA8
:1002700026EA0E0603FA04F446EA04042C604C68ED
:1002800014F0805F72D03F4CA56945F00105A5616F
:10029000A46904F0010400942CF0030404F18044E8
:1002A00004F58034A6684FEA8C754FEA157507FA95
:1002B00005FE26EA0E0EA0F18046B6F584361AD069
:1002C000B6F5806619D000E050E0B6F5806616D02D
:1002D000B6F5806615D0042606FA05F545EA0E0542
:1002E000A5604C6814F4803F0DD0D8F8004014434A
:1002F000C8F800400CE00026EEE70126ECE70226F5
:10030000EAE70326E8E7D8F800409443C8F800403D
:100310004C6814F4003F05D0D9F800401443C9F8E4
:10032000004004E0D9F800409443C9F800404C680C
:1003300014F4801F05D0DAF800401443CAF80040D6
:1003400004E0DAF800409443CAF800404C6814F422
:10035000001F05D0DBF800402243CBF8002005E069
:10036000DBF8004024EA0202CBF800200CF1010C7B
:10037000BCF1100FFFF423AFBDE8F88F000401407B
:100380000000111000100240014800687047000092
:100390006000002002480168491C016070470000AD
:1003A0006000002010B50748016841F010010160AD
:1003B000032000F071F8002000F006F800F016F8B5
:1003C000002010BD0020024010B5044600F006FADF
:1003D0004FF47A72B0FBF2F000F070FF0022214679
:1003E000501E00F025F8002010BD000008B5094897
:1003F000816941F001018161806900F00100009094
:10040000032000F049F80022BDE808401146501EC4
:1004100000F00EB80010024000F01F01012202FAA5
:1004200001F14009800000F1E020C0F800117047A0
:1004300010B4184B1B68C3F30223C3F1070CBCF1C3
:10044000040F01D94FF0040C1C1D072C01D200230E
:1004500000E0DB1E012404FA0CFCACF1010C0CEAF8
:100460000101994004FA03F35B1E1A40114300286E
:1004700008DA00F00F0000F1E020090180F8141DF7
:1004800010BC704700F1E020090180F8001410BC96
:10049000704700000CED00E000F00700064A11680C
:1004A0004FF6FF03194041EA002040F0FD7040F094
:1004B00080601060704700000CED00E02DE9F0470F
:1004C00004460F46DFF80C93D9F80000012200F033
:1004D000070053040226C04D4FF0007C41F28838DB
:1004E000B8427DD2D9F8000020F007003843C9F89F
:1004F0000000D9F8000000F00700B84202D0012047
:10050000BDE8F087207810F0020F05D06868A16878
:1005100020F0F00008436860207810F0010F00F030
:100520003D81606801280BD0022820D096FAA6F100
:10053000B1FA81F141F0200149092FD029682EE05C
:1005400093FAA3F1B1FA81F141F02001490901D0F8
:10055000296800E0696A93FAA3F3B3FA83F303F01E
:100560001F039A40114226D10120BDE8F0879CFA72
:10057000ACF1B1FA81F141F02001490901D02968BB
:1005800000E0696A9CFAACF3B3FA83F303F01F034B
:100590009A4011420FD10120BDE8F087696A96FAAE
:1005A000A6F3B3FA83F303F01F039A40114202D17A
:1005B0000120BDE8F087696821F003010843686005
:1005C000FFF7E2FE0646606801280FD0022820D01F
:1005D000686810F00C0F72D0FFF7D6FE801B00E0A9
:1005E0002FE0404528D90320BDE8F087686800F077
:1005F0000C00042863D0FFF7C7FE801B404502D9DA
:100600000320BDE8F087686800F00C000428F2D1F0
:10061000C4E0686800F00C00082850D0FFF7B4FE72
:10062000801B404502D90320BDE8F087686800F0D0
:100630000C000828F2D1B1E0686810F00C0FCBD1A3
:10064000ACE0207810F0020F05D06868A16820F0B7
:10065000F00008436860207810F0010F70D06068E7
:1006600001280BD0022820D096FAA6F1B1FA81F128
:1006700041F02001490930D029682FE093FAA3F115
:10068000B1FA81F141F02001490901D0296800E067
:10069000696A93FAA3F3B3FA83F303F01F039A4052
:1006A000114227D10120BDE8F0879CFAACF1B1FAE4
:1006B00081F141F02001490902D0296801E06DE093
:1006C000696A9CFAACF3B3FA83F303F01F039A4010
:1006D00011420FD10120BDE8F087696A96FAA6F3AE
:1006E000B3FA83F303F01F039A40114202D10120B1
:1006F000BDE8F087696821F0030108436860FFF7EF
:1007000043FE0646606801280DD002281FD06868A5
:1007100010F00C0F32D0FFF737FE801B404529D96F
:100720000320BDE8F087686800F00C00042825D09D
:10073000FFF72AFE801B404503D90320BDE8F08760
:100740001CE0686800F00C000428F1D116E068682D
:1007500000F00C00082811D0FFF716FE801B404562
:1007600002D90320BDE8F087686800F00C00082873
:10077000F2D103E0686810F00C0FCCD1D9F800007A
:1007800020F007003843C9F80000D9F8000000F055
:100790000700B84202D00120BDE8F087207810F0B1
:1007A000040F05D06868E16820F4E06008436860E1
:1007B000207810F0080F06D06868216920F4605096
:1007C00040EAC10068600020FFF7FEFD0020BDE8A0
:1007D000F0870000002002400010024010B500F039
:1007E00043F808494968F02292FAA2F201F0F001B8
:1007F000B2FA82F2D140044A515CC8400349086011
:1008000010BD000000100240D82B00085C00002042
:1008100010B5FFF7E3FF074949684FF4E06292FA29
:10082000A2F201F4E061B2FA82F2D140024A515CD4
:10083000C84010BD00100240D82B000810B5FFF7CB
:10084000CDFF074949684FF4605292FAA2F201F4D1
:100850006051B2FA82F2D140024A515CC84010BDE8
:1008600000100240D82B000885B01DA003688268E4
:100870004168C06801930392029104901CA0006833
:1008800000901C4B59681C4801F00C02042A21D02E
:10089000082A1FD14FF4701C9CFAACFC01F47012B2
:1008A000BCFA8CFC22FA0CF20DF1040C1CF80220AC
:1008B00011F4803F10D059684FF4003393FAA3F33A
:1008C00001F40031B3FA83F3D9401DF80110B0FBF5
:1008D000F1F0504305B07047084805B050437047E9
:1008E00002030405060708090A0B0C0D0E0F101071
:1008F000010200000010024000127A0000093D00D1
:100900002DE9F84F0446FC4D207841F2883710F06D
:10091000010F4FF0010600F0018168684FF40038C4
:1009200000F00C00042808D0686800F00C000828CB
:100930001ED1686810F4803F1AD098FAA8F0B0FA77
:1009400080F040F02000400901D0286800E0686A8B
:1009500098FAA8F1B1FA81F101F01F0106FA01F14C
:10096000084270D0606800286DD10120BDE8F88F82
:10097000286820F480302860286820F480202860CF
:10098000FFF702FD814698FAA8F0B0FA80F040F037
:100990002000400901D0286800E0686A98FAA8F1B0
:1009A000B1FA81F101F01F0106FA01F108421DD0F0
:1009B000FFF7EAFCA0EB0900B84202D90320BDE82A
:1009C000F88F98FAA8F0B0FA80F040F020004009C3
:1009D00001D0286800E0686A98FAA8F1B1FA81F1BC
:1009E00001F01F0106FA01F10842E1D16068B0F59B
:1009F000803F1AD0F0B1B0F5A02F25D0286820F4A0
:100A000080302860286820F4802028606068C0B3A7
:100A1000FFF7BAFC814698FAA8F0B0FA80F040F0EF
:100A20002000400919D0286818E0286840F4803078
:100A30002860EBE7286820F480302860286820F4DC
:100A400080202860E2E769E0286840F48020286080
:100A5000286840F480302860D8E7686A98FAA8F1DE
:100A6000B1FA81F101F01F0106FA01F1084255D1F6
:100A7000FFF78AFCA0EB0900B84203D90320BDE8C8
:100A8000F88F15E098FAA8F0B0FA80F040F0200056
:100A9000400901D0286800E0686A98FAA8F1B1FA24
:100AA00081F101F01F0106FA01F10842E0D035E0C2
:100AB000FFF76AFC814698FAA8F0B0FA80F040F09F
:100AC0002000400901D0286800E0686A98FAA8F17F
:100AD000B1FA81F101F01F0106FA01F108421DD0BF
:100AE000FFF752FCA0EB0900B84202D90320BDE891
:100AF000F88F98FAA8F0B0FA80F040F02000400992
:100B000001D0286800E0686A98FAA8F1B1FA81F18A
:100B100001F01F0106FA01F10842E1D120784FF0FF
:100B2000000910F0020F4FF002084ED068684FF035
:100B3000F80B10F00C0F21D0686800F00C000828AA
:100B400003D1686810F4803F18D0206988B396FA02
:100B5000A6F0B0FA80F0800000F1844000F5840037
:100B60000660FFF711FC824698FAA8F0B0FA80F010
:100B700040F02000400929D0286828E098FAA8F021
:100B8000B0FA80F040F02000400901D0286800E071
:100B9000686A98FAA8F1B1FA81F101F01F0106FA2A
:100BA00001F1084206D02069012803D00120BDE8E8
:100BB000F88F40E028689BFAABF26169B2FA82F2E2
:100BC00020F0F80091400843286075E0686A98FAC0
:100BD000A8F1B1FA81F101F01F0106FA01F1084212
:100BE0001DD1FFF7D1FBA0EB0A00642802D9032036
:100BF000BDE8F88F98FAA8F0B0FA80F040F0200035
:100C0000400901D0286800E0686A98FAA8F1B1FAB2
:100C100081F101F01F0106FA01F10842E1D02868D4
:100C20009BFAABF26169B2FA82F220F0F8009140CF
:100C30000843286040E096FAA6F0B0FA80F0800001
:100C400000F1844000F58400C0F80090FFF79CFBA1
:100C5000824698FAA8F0B0FA80F040F020004009EF
:100C600001D0286800E0686A98FAA8F1B1FA81F129
:100C700001F01F0106FA01F108421DD0FFF784FBC5
:100C8000A0EB0A00642802D90320BDE8F88F98FA87
:100C9000A8F0B0FA80F040F02000400901D02868A8
:100CA00000E0686A98FAA8F1B1FA81F101F01F0139
:100CB00006FA01F10842E1D1207810F0080F61D066
:100CC000A069D0B396FAA6F0B0FA80F0800000F1E7
:100CD000844000F58400C0F88064FFF755FB82462D
:100CE00098FAA8F0B0FA80F040F06000B6EB501F20
:100CF00004D128680EE000000010024098FAA8F025
:100D0000B0FA80F040F06000B8EB501F01D1286AC3
:100D100000E0686A98FAA8F1B1FA81F101F01F01C8
:100D200006FA01F108422AD1FFF72EFBA0EB0A00D8
:100D3000642803D90320BDE8F88F24E098FAA8F0CE
:100D4000B0FA80F040F06000B6EB501F01D1286887
:100D50000BE098FAA8F0B0FA80F040F06000B8EB31
:100D6000501F01D1286A00E0686A98FAA8F1B1FA28
:100D700081F101F01F0106FA01F10842D4D00120EF
:100D8000FFF704FA58E096FAA6F0B0FA80F0800077
:100D900000F1844000F58400C0F88094FFF7F4FA75
:100DA000824698FAA8F0B0FA80F040F06000B6EB06
:100DB000501F01D128680BE098FAA8F0B0FA80F033
:100DC00040F06000B8EB501F01D1286A00E0686A6B
:100DD00098FAA8F1B1FA81F101F01F0106FA01F1C8
:100DE000084229D0FFF7D0FAA0EB0A00642802D904
:100DF0000320BDE8F88F98FAA8F0B0FA80F040F030
:100E00006000B6EB501F01D128680BE098FAA8F0FB
:100E1000B0FA80F040F06000B8EB501F01D1286AB2
:100E200000E0686A98FAA8F1B1FA81F101F01F01B7
:100E300006FA01F10842D5D1207810F0040F70D0E5
:100E4000E86940F08050E861E86900F08050009067
:100E5000DFF844B4DBF8000040F48070CBF8000009
:100E6000FFF792FA8246DBF8000010F4807F0DD184
:100E7000FFF78AFAA0EB0A00642802D90320BDE834
:100E8000F88FDBF8000010F4807FF1D0286A20F0A2
:100E900001002862286A20F004002862FFF774FA33
:100EA000824698FAA8F0B0FA80F040F04000B6EB25
:100EB000501F01D128680BE098FAA8F0B0FA80F032
:100EC00040F04000B8EB501F01D1286A00E0686A8A
:100ED00098FAA8F1B1FA81F101F01F0106FA01F1C7
:100EE00008422AD0FFF750FAA0EB0A00B84202D914
:100EF0000320BDE8F88F98FAA8F0B0FA80F040F02F
:100F00004000B6EB501F01D128680CE098FAA8F019
:100F1000B0FA80F040F04000B8EB501F02D1286AD0
:100F200001E0CFE0686A98FAA8F1B1FA81F101F026
:100F30001F0106FA01F10842D4D1E06801281AD055
:100F4000F0B1052825D0286A20F001002862286A1F
:100F500020F004002862E06878B3FFF715FA8246B3
:100F600098FAA8F0B0FA80F040F04000B6EB501FBD
:100F700018D1286823E0286A40F001002862EAE7D7
:100F8000286A20F001002862286A20F00400286204
:100F9000E1E7286A40F004002862286A40F0010076
:100FA0002862D8E798FAA8F0B0FA80F040F0400044
:100FB000B8EB501F02D1286A01E035E0686A98FA60
:100FC000A8F1B1FA81F101F01F0106FA01F108421E
:100FD00078D1FFF7D9F9A0EB0A00B84202D9032073
:100FE000BDE8F88F98FAA8F0B0FA80F040F0400021
:100FF000B6EB501F01D128680BE098FAA8F0B0FAC0
:1010000080F040F04000B8EB501F01D1286A00E0AA
:10101000686A98FAA8F1B1FA81F101F01F0106FAA5
:1010200001F10842D5D04DE0FFF7AEF9824698FABB
:10103000A8F0B0FA80F040F04000B6EB501F01D1AC
:1010400028680BE098FAA8F0B0FA80F040F0400071
:10105000B8EB501F01D1286A00E0686A98FAA8F13D
:10106000B1FA81F101F01F0106FA01F1084229D01D
:10107000FFF78AF9A0EB0A00B84202D90320BDE8C5
:10108000F88F98FAA8F0B0FA80F040F04000B6EB84
:10109000501F01D128680BE098FAA8F0B0FA80F050
:1010A00040F04000B8EB501F01D1286A00E0686AA8
:1010B00098FAA8F1B1FA81F101F01F0106FA01F1E5
:1010C0000842D5D1E069D0B3696801F00C01082964
:1010D0007ED04FF0807A4FF00078022817D09AFA2D
:1010E000AAF0B0FA80F0800000F1844000F584009E
:1010F000C0F80090FFF748F9044698FAA8F0B0FA53
:1011000080F040F0200040097ED0286897E09AFAED
:10111000AAF0B0FA80F0800000F1844000F584006D
:10112000C0F80090FFF730F9074698FAA8F0B0FA37
:1011300080F040F02000400902D0286801E0A5E0DE
:10114000686A98FAA8F1B1FA81F101F01F0106FA74
:1011500001F108421CD0FFF717F9C01B642802D91F
:101160000320BDE8F88F98FAA8F0B0FA80F040F0BC
:101170002000400901D0286800E0686A98FAA8F1C8
:10118000B1FA81F101F01F0106FA01F10842E2D142
:10119000206AB0F5803F05D16868A16820F400306E
:1011A00008436860616A206A0843696821F4741121
:1011B000084368609AFAAAF0B0FA80F0800000F163
:1011C000844000F584000660FFF7DEF8044600E086
:1011D0005FE098FAA8F0B0FA80F040F020004009F3
:1011E00001D0286800E0686A98FAA8F1B1FA81F1A4
:1011F00001F01F0106FA01F1084247D1FFF7C4F8D8
:10120000001B642804D900E018E00320BDE8F88F33
:1012100098FAA8F0B0FA80F040F02000400901D020
:10122000296800E0696A98FAA8F0B0FA80F000F046
:101230001F0006FA00F00142E0D027E0686A98FA41
:10124000A8F1B1FA81F101F01F0106FA01F108429B
:101250001CD0FFF799F8001B642802D90320BDE8D1
:10126000F88F98FAA8F0B0FA80F040F0200040091A
:1012700001D0296800E0696A98FAA8F0B0FA80F015
:1012800000F01F0006FA00F00142E2D10020BDE8A4
:10129000F88F0120BDE8F88F007000404FF0E0218A
:1012A000042804D0086920F0040008617047086928
:1012B00040F004000861704770470000401EB0F124
:1012C000807F01D3012070474FF0E0214861044A3C
:1012D000F02010700020886107200861002070470E
:1012E00023ED00E010B5FFF7E7FF10BD7047704732
:1012F00010B490F83820012A2AD0012380F8383021
:10130000022280F839200268D2F804C02CF0700C58
:10131000C2F804C00268D2F804C00C684CEA040C9D
:10132000C2F804C00268D2F808C02CF0800CC2F8E1
:1013300008C00268D2F808C049684CEA010191600F
:1013400080F83930002180F8381010BC0020704738
:1013500010BC0220704710B50446002C03D094F84E
:10136000390010B107E0012010BD002084F83800DA
:10137000204600F00DF8022084F83900211D206875
:1013800001F04EF8012084F83900002010BD000063
:1013900070B586B001680025264A2748B1F1804F14
:1013A0002ED0A1F18043B3F5806327D1D16941F0FC
:1013B0000201D161D16901F002010191C0210291C4
:1013C00002240394059402A9FEF7ECFE012002908A
:1013D00003940594194E02A93046FEF7E3FE0294E9
:1013E0000395049502A93046FEF7DCFE0022012198
:1013F0001D20FFF71DF81D20FFF70EF806B070BD89
:10140000D16941F00101D161D16901F0010101917E
:101410000F2102910395049502A9FEF7C3FE002255
:1014200001211C20FFF704F81C20FEF7F5FF06B091
:1014300070BD00000010024000080140000C014097
:1014400070B5044694F83800012818D0012584F8B6
:101450003850022084F839002068826822F0770230
:1014600022F47F428260086850283AD00EDC20289F
:101470005FD006DC002852D0102863D154E002204F
:1014800070BD30285AD040285CD13EE0602832D070
:1014900070280CD0B0F5805F03D0B0F5005F51D15B
:1014A00013E02068816821F0070181604AE0CB6881
:1014B0004A688968206800F0F4FF2068816821F09C
:1014C000770141F0770181603CE0CB684A68896828
:1014D000206800F0E6FF2068816841F48041816067
:1014E00030E0CA684968206801F0B1F850212068EE
:1014F00000F0E2FF26E0CA684968206801F0E9F8D8
:101500006021206800F0D8FF1CE0CA6849682068A4
:1015100001F09DF84021206800F0CEFF12E000218C
:10152000206800F0C9FF0DE01021206800F0C4FF22
:1015300008E02021206800F0BFFF03E03021206890
:1015400000F0BAFF84F83950002084F8380070BDEC
:101550002DE9F047824600259AF818100127EB4C38
:101560004FF002084FF6FF76012934D002297DD0D2
:10157000042900F0E280082964D1DAF80000B0F113
:10158000804F00F03281A0F18041B1F5806159D1E6
:101590000A20FEF7FBFD33460B22DDA1DF4800F0F9
:1015A0002DFD0A20FEF7F2FDDFF8749399F8000094
:1015B000002800F07281012844D10C21504600F02F
:1015C00018FCC9F80800D9F80410884240F27E815E
:1015D000401A00F07EB90A20FEF7D8FD4FF6FF73DF
:1015E0000722D0A1CD4800F009FD0A20FEF7CEFD6C
:1015F000DFF8389399F8000068B1012822D1002162
:10160000504600F0F6FBC9F80800D9F804108842EB
:101610001AD9401A1BE00021504600F0EAFBC9F835
:1016200004000021C24800F048FAC4F800800022FB
:10163000B649BF4800F08EF90021BD4800F006FA17
:1016400089F80070BDE8F087711A491C0844C9F890
:101650000C00FFF7DDF8D9F80C10B0FBF1F0C9F879
:101660000C000021B24800F028FA00E00DE02560EF
:101670000022A649AE4800F06DF90021AC4800F008
:10168000E5F989F80050BDE8F0870A20FEF77EFDF5
:101690004FF6FF730722A7A1A04800F0AFFC0A2075
:1016A000FEF774FDDFF8949299F8000068B1012804
:1016B000E9D10421504600F09CFBC9F80800D9F894
:1016C000041088421AD9401A1BE00421504600F049
:1016D00090FBC9F804000421954800F0EEF9C4F825
:1016E000008004228949924800F034F9042190488E
:1016F00000F0ACF989F80070BDE8F087711A491C58
:101700000844C9F80C00FFF783F8D9F80C10B0FBB7
:10171000F1F0C9F80C000421854800F0CEF92560ED
:1017200004227A49824800F015F90421804800F02B
:101730008DF989F80050BDE8F0870A20FEF726FDF4
:101740004FF6FF7307227EA1744800F057FC0A2071
:10175000FEF71CFDDFF8F09199F8000068B1012850
:10176000E9D10821504600F044FBC9F80800D9F837
:10177000041088421AD9401A1BE00821504600F094
:1017800038FBC9F804000821694800F096F9C4F84C
:10179000008008225D49664800F0DCF808216448B2
:1017A00000F054F989F80070BDE8F087711A491CFF
:1017B0000844C9F80C00FFF72BF8D9F80C10B0FB5F
:1017C000F1F0C9F80C000821594800F076F92560BD
:1017D00008224E49564800F0BDF80821544800F050
:1017E00035F989F80050BDE8F0870A20FEF7CEFCF5
:1017F0004FF6FF73072247A1484800F0FFFB0A207D
:10180000FEF7C4FCDFF8449199F8000068B10128A4
:10181000E9D10C21504600F0ECFAC9F80800D9F8DB
:10182000041088421AD9401A1BE00C21504600F0DF
:10183000E0FAC9F804000C213D4800F03EF9C4F874
:1018400000800C2231493A4800F084F80C213848D5
:1018500000F0FCF889F80070BDE8F087711A491CA7
:101860000844C9F80C00FEF7D3FFD9F80C10B0FB00
:10187000F1F0C9F80C000C212D4800F01EF925608C
:101880000C2222492A4800F065F80C21284800F073
:10189000DDF889F80050BDE8F0870C21504600F0D3
:1018A000A8FAC9F804000C21294800F006F9C4F888
:1018B00000800C221549264800F04CF80C212448E1
:1018C00000F0C4F889F80070BDE8F087711A491C6F
:1018D0000844C9F80C00FEF79BFFD9F80C10B0FBC8
:1018E000F1F0C9F80C000C21194800F0E6F8256069
:1018F0000C220649164800F02DF80C21144800F07F
:10190000A5F889F80050BDE8F08700001C00002011
:1019100054494D33436834494E0A000064020020A4
:10192000A4000020436831494E0A000064000020F2
:10193000B4000020436832494E0A000074000020C1
:10194000436833494E0A00008400002094000020C0
:10195000F000002070B504460D4694F838000128C8
:1019600021D0012684F83860022084F83900E2B1E1
:10197000042A2BD0082A3BD0EB686A6829682068C3
:1019800000F0F7FE2068C16921F44061C161206860
:10199000C169AA6841EA0221C16184F83960002066
:1019A00084F8380070BD022070BDEB686A68296851
:1019B000206800F05FFE2068816921F00C018161E0
:1019C00020688169AA6811438161E6E7EB686A686B
:1019D0002968206800F08FFE2068816921F4406149
:1019E000816120688169AA6841EA02218161D4E7A6
:1019F000EB686A682968206800F09DFE2068C1696C
:101A000021F00C01C1612068C169AA681143C1615C
:101A1000C3E710B50446002C03D094F8390010B188
:101A200007E0012010BD002084F83800204600F0B7
:101A30000CF8022084F83900211D206800F0F0FC29
:101A4000012084F83900002010BD704710B504460D
:101A50000122206800F018FD2068016841F00101B2
:101A60000160002010BD10B504460029226806D090
:101A7000042909D008290CD00C2913D10EE0D06814
:101A800040F00200D0600DE0D06840F00400D0606B
:101A900008E0D06840F00800D06003E0D06840F073
:101AA0001000D0600122206800F0EEFC2068016880
:101AB00041F001010160002010BD10B50446002274
:101AC000206800F0E1FC2068016A41F21112114225
:101AD00007D1016A9210114203D1016821F001017E
:101AE0000160002010BD70B50446206801694FF008
:101AF000000511F0020F17D0C16811F0020F13D0CA
:101B0000E91E0161012020762068806910F0030F32
:101B100003D02046FFF71CFD05E0204600F09DF8AD
:101B2000204600F04DF925762068016911F0040F78
:101B300018D0C16811F0040F14D06FF004010161D6
:101B4000022020762068806910F4407F03D0204670
:101B5000FFF7FEFC05E0204600F07FF8204600F08D
:101B60002FF925762068016911F0080F18D0C16897
:101B700011F0080F14D06FF00801016104202076E5
:101B80002068C06910F0030F03D02046FFF7E0FC87
:101B900005E0204600F061F8204600F011F92576B6
:101BA0002068016911F0100F18D0C16811F0100FF2
:101BB00014D06FF010010161082020762068C06900
:101BC00010F4407F03D02046FFF7C2FC05E020461A
:101BD00000F043F8204600F0F3F82576206801690C
:101BE00011F0010F09D0C16811F0010F05D06FF09D
:101BF00001010161204600F0FBF82068016911F045
:101C0000800F09D0C16811F0800F05D06FF08001FE
:101C100001612046FFF76AFB2068016911F0400F5F
:101C200009D0C16811F0400F05D06FF0400101618B
:101C3000204600F000F92068016911F0200F0BD058
:101C4000C16811F0200F07D06FF02001016120461C
:101C5000BDE87040FFF74BBB70BD704770B50446E0
:101C60000D4694F8380001280DD0012684F838601C
:101C7000022084F8390042B1042A1AD0082A2DD053
:101C80000C2A53D13EE0022070BD2946206800F0A6
:101C90001BFC2068816941F008018161206881692D
:101CA00021F004018161206881692A691143816101
:101CB0003CE02946206800F03BFC2068816941F443
:101CC000006181612068816921F4806181612068FF
:101CD00081692A6941EA0221816127E02946206859
:101CE00000F05AFC2068C16941F00801C161206818
:101CF000C16921F00401C1612068C1692A691143E9
:101D0000C16113E02946206800F07AFC2068C169AF
:101D100041F40061C1612068C16921F48061C16141
:101D20002068C1692A6941EA0221C16184F83960E9
:101D3000002084F8380070BD10B50446002C03D094
:101D400094F8390010B107E0012010BD002084F89C
:101D50003800204600F00CF8022084F83900211DDC
:101D6000206800F05DFB012084F83900002010BDE0
:101D700000B587B00068A0F18041B1F5006119D1CC
:101D80000D48C16941F00401C161C06900F004005F
:101D90000190C020029002200390059002A90748FC
:101DA000FEF700FA002201211E20FEF741FB1E2053
:101DB000FEF732FB07B000BD00100240000C0140EE
:101DC000704710B504460122206800F05DFB2068D2
:101DD000A0F18041B1F5963103D1416C41F400414D
:101DE00041642068016841F001010160002010BDDC
:101DF0007047002290F83830012B0AD0012380F878
:101E0000383041B1042909D008290AD00C290DD154
:101E10000AE00220704701684A6B07E001688A6B9C
:101E200004E00168CA6B01E001680A6C002180F8D7
:101E30003810104670477047704738B5044621681F
:101E4000086800F00100CA6802F48072002807D018
:101E500032B1086848680090E06B40F00100E06330
:101E60000868C0F34002486900F001003AB130B19F
:101E70000A684A680092E26B42F00402E2630A6870
:101E8000C2F380023AB130B10A684A680092E26B4C
:101E900042F00202E2630A68C2F3C0023AB130B112
:101EA000086848680090E06B40F00800E06308684C
:101EB000C0F34010C96801F0200118B111B12046EB
:101EC00000F091FC20680168C1F3C011C06800F007
:101ED000800019B110B1204600F06EFD2068016845
:101EE000C1F38011C06800F0400019B110B1204664
:101EF00000F05FFCE06B002805D0012084F8390079
:101F00002046FFF799FF38BD70B50446002C04D079
:101F100094F83900002510B106E0012070BD84F866
:101F20003850204600F020F8022084F8390020685C
:101F3000C16821F40051C160204600F0ADFC20686A
:101F4000016921F4904101612068416921F02A0171
:101F500041612068C16841F40051C160E56301201E
:101F600084F83900002070BD10B586B00068A0F17B
:101F70008041B1F59C3125D11348816941F48041FC
:101F80008161806900F4804001904FF400700290FC
:101F900002200390032005900C4C02A92046FEF776
:101FA00001F92115029100210391049102A9204613
:101FB000FEF7F8F8012200212520FEF739FA252046
:101FC000FEF72AFA06B010BD0010024000080140DA
:101FD00010B5084905A048606420FEF7D7F8064808
:101FE0000068BDE81040C0B2FEF7AEB848455245A3
:101FF0000A0000002C000020043801402DE9F041C7
:1020000004460D46984694F83900012804D0222849
:1020100002D00220BDE8F0811DB312B394F838005D
:10202000012821D0012684F838600027E76394F85E
:10203000390022281BD0122084F83900A284E284BF
:10204000E08C401EE084A068B0F5805F13D043466A
:1020500000228021204600F0E4FC08B30320BDE804
:10206000F0810120BDE8F0810220BDE8F08132203E
:1020700084F83900E2E7434600228021204600F040
:10208000D0FC10B10320BDE8F08128882168C0F39E
:1020900008004860206908B16D1C05E0AD1C03E034
:1020A000216815F8010B4860E08C0028C8D1434630
:1020B00000224021204600F0B4FC10B10320BDE80E
:1020C000F08194F83900322806D084F8396084F819
:1020D00038700020BDE8F081222084F83900F6E74E
:1020E000704700000348002141608160C1600170B9
:1020F000016170474000002030B587B01748816902
:1021000041F020018161816901F020010191816923
:1021100041F004018161816901F00401019181694B
:1021200041F008018161806900F0080001904FF4DE
:1021300070400290012503950224059402A90848E5
:10214000FEF730F84FF4614002900395059402A920
:102150000448FEF727F807B030BD00000010024029
:10216000000C01400008014010B58AB01C484FF037
:102170008041016047214160002484606321C16087
:102180000461FFF7E8F84FF48050069006A9144860
:10219000FFF756F91248FFF73CFC0494059404A994
:1021A0000F48FFF7A5F800940120019002940F203A
:1021B0000390002269460A48FFF7CCFB04226946D7
:1021C0000748FFF7C7FB082269460548FFF7C2FB2F
:1021D0000C2269460248FFF7BDFB0AB010BD0000A3
:1021E000B400002010B592B027482649016047216D
:1021F00041600024846040F2E731C1600461FFF770
:10220000AAF84FF480500E900EA91F48FFF718F956
:102210001D48FFF791FD1C48FFF7FBFB0C940D9444
:102220000CA91948FFF764F860200590C7200690B4
:1022300007940994002205A91348FFF70FFD002118
:102240001148FFF7BEFD042205A90F48FFF706FD60
:1022500004210D48FFF7B5FD082205A90A48FFF73C
:10226000FDFC08210848FFF7ACFD00940120019017
:1022700002940F2003900C2269460348FFF76AFB83
:1022800012B010BD00040040F000002010B58AB06C
:10229000174816490160472141600024846044F6D4
:1022A0001F61C1600461FFF747FD0894099408A904
:1022B0000F48FFF71DF86020019040F2DB500290BC
:1022C00003940594002201A90948FFF7C7FC0021E7
:1022D0000748FFF776FD042201A90548FFF7BEFC79
:1022E00004210348FFF76DFD0AB010BD000800404F
:1022F0002C0100200848074901604FF41651416045
:1023000000218160C16001610C2242618161C16173
:10231000FFF7FABD00380140640200200649C96891
:1023200001600649C96841600549C968816005497D
:10233000C968C1607047000064000020740000207C
:10234000840000209400002010B5FEF723F8BDE8BB
:102350001040FEF7C7BF30B591B0012006900004D1
:1023600007900024089402250D950E904FF4E0107C
:102370000F9006A8FEF7C4FA052001900295039479
:10238000680204900594022101A8FEF797F8FEF771
:1023900025FA4FF47A71B0FBF1F0FEF78FFF0420BD
:1023A000FEF77CFF00221146501EFEF741F811B0E7
:1023B00030BD00000E48016841F001010160416834
:1023C0000C4A11404160016821F4102121F0807114
:1023D0000160016821F480210160416821F4FE015F
:1023E00041604FF41F0181600349C00308607047DA
:1023F000001002400000FFF808ED00E00148FFF780
:1024000072BB0000B40000200148FFF76CBB000065
:10241000F00000200148FFF766BB00002C010020FF
:1024200030B40268DFF854C0154C164B604506D036
:10243000B0F1804F03D0A04201D0984203D122F0E6
:1024400070024D682A43604506D0B0F1804F03D03A
:10245000A04201D0984203D122F44072CB681A43C3
:1024600002608A68C2620A688262604501D10969B5
:1024700001630121416130BC70470000002C014024
:10248000000400400008004001238B40D0F820C029
:102490002CEA03030362036A02FA01F119430162A1
:1024A0007047D0F808C02CF47F4C42EA0322114355
:1024B00041EA0C0181607047826822F0700211438A
:1024C00041F007018160704710B4026A22F00102F6
:1024D0000262036A4268D0F818C02CF0700C2CF02D
:1024E000030C0C6844EA0C0C23F002038C682343B1
:1024F0000E4CA04206D123F00803CC6844EA030343
:1025000023F0040309D122F4807222F400724C6992
:1025100044EA02028C6944EA02024260C0F818C030
:1025200049684163036210BC70470000002C014001
:1025300010B4026A22F010020262036A4268D0F804
:1025400018C02CF4E04C2CF4407C0C684CEA042CB1
:1025500023F020038C6843EA04130E4CA04206D1FA
:1025600023F08003CC6843EA041323F0400309D12D
:1025700022F4806222F400624C6942EA84028C698F
:1025800042EA84024260C0F818C04968816303626D
:1025900010BC7047002C014010B4026A22F4807213
:1025A0000262036A4268D0F81CC02CF0700C2CF058
:1025B000030C0C6844EA0C0C23F400738C6843EAA7
:1025C00004230E4CA04206D123F40063CC6843EAF6
:1025D000042323F4806309D122F4805222F40052B0
:1025E0004C6942EA04128C6942EA04124260C0F863
:1025F0001CC04968C163036210BC7047002C0140D5
:1026000010B4026A22F480520262036A4268D0F86F
:102610001CC02CF4E04C2CF4407C0C684CEA042CDC
:1026200023F400538C6843EA0433A0F18044B4F5EA
:10263000963404D122F480424C6942EA841242600A
:10264000C0F81CC049680164036210BC7047036A8B
:10265000D0F820C02CF0010CC0F820C0D0F818C071
:102660002CF0F00C4CEA021223F00A0319438261A9
:102670000162704730B4D0F820C02CF0010CC0F8D3
:1026800020C0D0F818C0046AA0F18045B5F5963591
:102690001AD0B0F1804F17D015F5943514D0B5F598
:1026A000806511D04CF0010222F0F0024FF0F00CE6
:1026B0000CEA03131A4324F00A0301F00A01194338
:1026C0008261016230BC70472CF0030C4CEA0202BC
:1026D000EAE7036A23F010030362D0F818C0036A24
:1026E0002CF4704C4CEA023223F0A00343EA0111AF
:1026F00082610162704710B4D0F820C02CF0100C39
:10270000C0F820C08469D0F820C024F4407444EAA2
:10271000022222F470424FF4704404EA03331A4355
:102720002CF0A0034FF0A00C0CEA011119438261B8
:10273000016210BC704710B4D0F820C02CF4807C2B
:10274000C0F820C0C469D0F820C024F0030422439C
:1027500022F0F002F02404EA03131A432CF420635D
:102760004FF4206C0CEA01211943C261016210BCD4
:10277000704710B4D0F820C02CF4805CC0F820C0A2
:10278000C469D0F820C024F4407444EA022222F440
:1027900070424FF4704404EA03331A432CF420438C
:1027A0004FF4204C0CEA01311943C261016210BCA4
:1027B000704710B50168CA6822F04002CA6090F8FC
:1027C000391032290BD001684A6922F001024A61AE
:1027D000012180F83910FFF783FC002010BD222171
:1027E00080F83910F7E710B590F83910222903D096
:1027F000322901D0022010BD8168B1F5805F11D06F
:10280000016919B30168496801F07F02816A4B1CB4
:1028100083620A70C18D491E0904090CC1851CD050
:10282000002010BD816A02693AB102685268D2B2D2
:102830000A80816A491C8162ECE702685268C2F32F
:1028400008020A80816A891C8162E3E701684A689C
:10285000816A4B1C83620A70DCE70168CA6822F057
:102860002002CA6090F83910322910D00168CA6875
:1028700022F48072CA6001684A6922F001024A614A
:10288000012180F83910FFF7A3FB002010BD1221B1
:1028900080F83910F7E700002DE9F0410446206880
:1028A0000169E26821F44051114301612169A06886
:1028B0000843616901432068C26822F4037222F46C
:1028C000A0521143C16020684169A26921F440719E
:1028D000114341612068374D3226A0F18041B1F5A6
:1028E0009C3133D0FDF794FF00EBC00101EB0010E9
:1028F00061688900B0FBF1F0A5FB00104709FDF706
:1029000087FF00EBC00101EB001061688900B0FB9C
:10291000F1F8FDF77DFF00EBC00101EB00106168ED
:102920008900B0FBF1F0A5FB001040096FF0180121
:10293000484308EB800006EB0010A5FB001021685F
:10294000400967F31F108860BDE8F081FDF776FF4E
:1029500000EBC00101EB001061688900B0FBF1F0F1
:10296000A5FB00104709FDF769FF00EBC00101EB73
:10297000001061688900B0FBF1F8FDF75FFF00EB24
:10298000C00101EB001061688900B0FBF1F0A5FB0C
:10299000001040096FF01801484308EB800006EB77
:1029A0000010A5FB00102168400967F31F10886024
:1029B000BDE8F0811F85EB5190F83910122903D042
:1029C000322901D0022070478168B1F5805F0CD0B8
:1029D000016A4A1C0262026809785160C18C491E72
:1029E0000904090CC18410D019E0016A0268098841
:1029F000C1F308015160016919B1016A491C016202
:102A0000ECE7016A891C0162E8E70168CA6822F004
:102A10008002CA600068C16841F04001C1600020C6
:102A200070472DE9F04704460E4692461D46FDF7D5
:102A3000ABFC07464FF000084FF00109BAF1000F58
:102A400005D02068006836EA00002FD057E02068E3
:102A5000006836EA000052D0B5F1FF3F20D025B122
:102A6000FDF792FCC01BA8421AD92068C16821F06A
:102A70008001C1602068C16821F02001C160206828
:102A8000C16821F48071C1602068416921F00101B1
:102A9000416184F8399084F838800320BDE8F087DC
:102AA0002068006836EA0000D6D128E0B5F1FF3F83
:102AB00020D025B1FDF768FCC01BA8421AD92068B8
:102AC000C16821F08001C1602068C16821F0200147
:102AD000C1602068C16821F48071C16020684169CB
:102AE00021F00101416184F8399084F83880032095
:102AF000BDE8F0872068006836EA0000D6D00020E4
:102B0000BDE8F08710B54FF47A70FDF73FFBBDE8E4
:102B100010400148FFF791B96402002002E008C8A4
:102B2000121F08C1002AFAD170477047002001E047
:102B300001C1121F002AFBD17047000010B500210F
:102B40000A48FEF790FF04210848FEF78CFF082191
:102B50000648FEF788FF0C210448FEF784FFBDE815
:102B600010400C210248FEF77EBF0000B400002098
:102B7000F0000020FDF716FCFFF7EDFBFFF7BCFAB5
:102B8000FFF7F2FAFFF72EFBFFF780FBFFF7B2FB30
:102B90004FF47A70FDF7FAFAFFF7A4FAFFF7CEFFC9
:102BA0006420FDF7F3FA094C0948FFF7B7FB0A2048
:102BB000FDF7ECFA4FF6FF73042206482168FFF791
:102BC0001DFA0A20FDF7E2FAEEE700003C000020C3
:102BD000A40200206402002000000000010203049F
:102BE00001020304060708096E756C6C0A000000F8
:102BF000102C000800000020640000001C2B0008BE
:102C0000742C000864000020540600002C2B0008DF
:102C10006000000000000000000000000000000054
:102C200000000000000000000000000000000000A4
:102C300001000000000000000F0000000000000084
:102C4000E82B00080000000000000000E82B00084E
:102C50000000000000000000000000000000000074
:102C600000000000000000000000000000A24A0474
:042C70000000000060
:04000005080000ED02
:00000001FF
