:020000040800F2
:100000000005002001010008090100080B0100089B
:100010000D0100080F010008110100080000000098
:1000200000000000000000000000000013010008B4
:10003000150100080000000017010008D919000888
:100040001B0100081B0100081B0100081B01000820
:100050001B0100081B0100081B0100081B01000810
:100060001B0100081B0100081B0100081B01000800
:100070001B0100081B0100081B0100081B010008F0
:100080001B0100081B0100081B0100081B010008E0
:100090001B0100081B0100081B0100081B010008D0
:1000A0001B0100081B0100081B0100081B010008C0
:1000B0008D1A00081B0100081B0100081B01000825
:1000C0001B0100081B0100081B0100081B010008A0
:1000D0001B0100081B0100081B0100081B01000890
:1000E0001B0100081B0100081B010008DFF80CD0F1
:1000F00000F018F800480047DF1E00080005002047
:100100000648804706480047FEE7FEE7FEE7FEE7B1
:10011000FEE7FEE7FEE7FEE7FEE7FEE7451A00081A
:10012000ED000008064C074D06E0E06840F00103D2
:1001300094E8070098471034AC42F6D3FFF7DAFF93
:100140000C1F00082C1F000831B500F0FBF8044616
:1001500000F0F8F80099001B8842F9D338BD000080
:100160002DE9F84F00239C46DFF8CC810F2708F1DA
:10017000040909F1040A0AF1040B012202FA0CF63F
:100180000A683240B2427DD1DFF8B0E14C68A4EB9E
:100190000E0574452BD00DDC032C34D005DC34B3B4
:1001A000012C19D0022C2FD11BE0112C16D0122CAF
:1001B0002AD119E0B5F5881F19D006DCB5F5803FC6
:1001C00015D0B5F5801F1FD111E0B5F5001F0ED079
:1001D000B5F5041F18D10AE0CB6815E0CB681B1DEC
:1001E00012E0CB6808330FE0CB680C330CE08B686F
:1001F00023B1012B04D00823466105E0042303E06A
:100200000823066100E00023B2F5807F01D2054695
:1002100001E000F1040502D24FEA8C0403E0ACF1E6
:1002200008044FEA84042E6807FA04FE26EA0E0644
:1002300003FA04F446EA04042C604C6814F0805F6E
:1002400072D03F4CA56945F00105A561A46904F091
:10025000010400942CF0030404F1804404F580347C
:10026000A6684FEA8C754FEA157507FA05FE26EA6F
:100270000E0EA0F18046B6F584361AD0B6F580662B
:1002800019D000E050E0B6F5806616D0B6F580666D
:1002900015D0042606FA05F545EA0E05A5604C685A
:1002A00014F4803F0DD0D8F800401443C8F8004043
:1002B0000CE00026EEE70126ECE70226EAE703263B
:1002C000E8E7D8F800409443C8F800404C6814F4BC
:1002D000003F05D0D9F800401443C9F8004004E0BD
:1002E000D9F800409443C9F800404C6814F4801FCA
:1002F00005D0DAF800401443CAF8004004E0DAF808
:1003000000409443CAF800404C6814F4001F05D024
:10031000DBF800402243CBF8002005E0DBF800408A
:1003200024EA0202CBF800200CF1010CBCF1100F02
:10033000FFF423AFBDE8F88F000401400000111066
:1003400000100240014800687047000004000020CF
:1003500002480168491C0160704700000400002049
:1003600010B50748016841F010010160032000F05A
:1003700065F8002000F006F800F016F8002010BD27
:100380000020024010B5044600F0FAF94FF47A72EA
:10039000B0FBF2F000F064FF00222146501E00F096
:1003A00019F8002010BD000008B50948816941F026
:1003B00001018161806900F001000090032000F0DC
:1003C0003DF80022BDE808401146501E00F002B87A
:1003D0000010024010B4184B1B68C3F30223C3F192
:1003E000070CBCF1040F01D94FF0040C1C1D072CA5
:1003F00001D2002300E0DB1E012404FA0CFCACF166
:10040000010C0CEA0101994004FA03F35B1E1A4047
:100410001143002808DA00F00F0000F1E020090184
:1004200080F8141D10BC704700F1E020090180F82D
:10043000001410BC704700000CED00E000F0070055
:10044000064A11684FF6FF03194041EA002040F0C8
:10045000FD7040F080601060704700000CED00E01F
:100460002DE9F04704460F46DFF80C93D9F8000059
:10047000012200F0070053040226C04D4FF0007C1B
:1004800041F28838B8427DD2D9F8000020F0070048
:100490003843C9F80000D9F8000000F00700B8425E
:1004A00002D00120BDE8F087207810F0020F05D0BF
:1004B0006868A16820F0F00008436860207810F0B8
:1004C000010F00F03D81606801280BD0022820D088
:1004D00096FAA6F1B1FA81F141F0200149092FD035
:1004E00029682EE093FAA3F1B1FA81F141F02001DD
:1004F000490901D0296800E0696A93FAA3F3B3FAC5
:1005000083F303F01F039A40114226D10120BDE876
:10051000F0879CFAACF1B1FA81F141F02001490970
:1005200001D0296800E0696A9CFAACF3B3FA83F35E
:1005300003F01F039A4011420FD10120BDE8F0875C
:10054000696A96FAA6F3B3FA83F303F01F039A409D
:10055000114202D10120BDE8F087696821F0030152
:1005600008436860FFF7EEFE0646606801280FD07A
:10057000022820D0686810F00C0F72D0FFF7E2FE5E
:10058000801B00E02FE0404528D90320BDE8F0871C
:10059000686800F00C00042863D0FFF7D3FE801BCE
:1005A000404502D90320BDE8F087686800F00C00E0
:1005B0000428F2D1C4E0686800F00C00082850D08C
:1005C000FFF7C0FE801B404502D90320BDE8F0873D
:1005D000686800F00C000828F2D1B1E0686810F0FB
:1005E0000C0FCBD1ACE0207810F0020F05D068687A
:1005F000A16820F0F00008436860207810F0010F37
:1006000070D0606801280BD0022820D096FAA6F19D
:10061000B1FA81F141F02001490930D029682FE079
:1006200093FAA3F1B1FA81F141F02001490901D017
:10063000296800E0696A93FAA3F3B3FA83F303F03D
:100640001F039A40114227D10120BDE8F0879CFA90
:10065000ACF1B1FA81F141F02001490902D02968D9
:1006600001E06DE0696A9CFAACF3B3FA83F303F03E
:100670001F039A4011420FD10120BDE8F087696A3B
:1006800096FAA6F3B3FA83F303F01F039A401142DC
:1006900002D10120BDE8F087696821F00301084319
:1006A0006860FFF74FFE0646606801280DD00228FB
:1006B0001FD0686810F00C0F32D0FFF743FE801B8C
:1006C000404529D90320BDE8F087686800F00C0098
:1006D000042825D0FFF736FE801B404503D90320B0
:1006E000BDE8F0871CE0686800F00C000428F1D138
:1006F00016E0686800F00C00082811D0FFF722FE11
:10070000801B404502D90320BDE8F087686800F0EF
:100710000C000828F2D103E0686810F00C0FCCD16F
:10072000D9F8000020F007003843C9F80000D9F8D4
:10073000000000F00700B84202D00120BDE8F087B9
:10074000207810F0040F05D06868E16820F4E060BC
:1007500008436860207810F0080F06D068682169A7
:1007600020F4605040EAC10068600020FFF70AFEF4
:100770000020BDE8F0870000002002400010024089
:1007800010B500F043F808494968F02292FAA2F245
:1007900001F0F001B2FA82F2D140044A515CC84043
:1007A0000349086010BD000000100240FC1E000854
:1007B0000000002010B5FFF7E3FF074949684FF438
:1007C000E06292FAA2F201F4E061B2FA82F2D14060
:1007D000024A515CC84010BD00100240FC1E0008D7
:1007E00010B5FFF7CDFF074949684FF4605292FA00
:1007F000A2F201F46051B2FA82F2D140024A515C95
:10080000C84010BD00100240FC1E000885B01DA0AD
:10081000036882684168C068019303920291049062
:100820001CA0006800901C4B59681C4801F00C0289
:10083000042A21D0082A1FD14FF4701C9CFAACFC6A
:1008400001F47012BCFA8CFC22FA0CF20DF1040CCB
:100850001CF8022011F4803F10D059684FF4003387
:1008600093FAA3F301F40031B3FA83F3D9401DF8EE
:100870000110B0FBF1F0504305B07047084805B0D7
:100880005043704702030405060708090A0B0C0DC4
:100890000E0F1010010200000010024000127A003A
:1008A00000093D002DE9F84F0446FC4D207841F247
:1008B000883710F0010F4FF0010600F001816868E1
:1008C0004FF4003800F00C00042808D0686800F0ED
:1008D0000C0008281ED1686810F4803F1AD098FADE
:1008E000A8F0B0FA80F040F02000400901D028685C
:1008F00000E0686A98FAA8F1B1FA81F101F01F01ED
:1009000006FA01F1084270D0606800286DD101201C
:10091000BDE8F88F286820F480302860286820F42B
:1009200080202860FFF70EFD814698FAA8F0B0FA03
:1009300080F040F02000400901D0286800E0686A9B
:1009400098FAA8F1B1FA81F101F01F0106FA01F15C
:1009500008421DD0FFF7F6FCA0EB0900B84202D90F
:100960000320BDE8F88F98FAA8F0B0FA80F040F0C4
:100970002000400901D0286800E0686A98FAA8F1D0
:10098000B1FA81F101F01F0106FA01F10842E1D14B
:100990006068B0F5803F1AD0F0B1B0F5A02F25D037
:1009A000286820F480302860286820F4802028609F
:1009B0006068C0B3FFF7C6FC814698FAA8F0B0FAA9
:1009C00080F040F02000400919D0286818E028681D
:1009D00040F480302860EBE7286820F480302860FD
:1009E000286820F480202860E2E769E0286840F465
:1009F00080202860286840F480302860D8E7686A42
:100A000098FAA8F1B1FA81F101F01F0106FA01F19B
:100A1000084255D1FFF796FCA0EB0900B84203D974
:100A20000320BDE8F88F15E098FAA8F0B0FA80F03E
:100A300040F02000400901D0286800E0686A98FA78
:100A4000A8F1B1FA81F101F01F0106FA01F10842A3
:100A5000E0D035E0FFF776FC814698FAA8F0B0FACE
:100A600080F040F02000400901D0286800E0686A6A
:100A700098FAA8F1B1FA81F101F01F0106FA01F12B
:100A800008421DD0FFF75EFCA0EB0900B84202D976
:100A90000320BDE8F88F98FAA8F0B0FA80F040F093
:100AA0002000400901D0286800E0686A98FAA8F19F
:100AB000B1FA81F101F01F0106FA01F10842E1D11A
:100AC00020784FF0000910F0020F4FF002084ED0CE
:100AD00068684FF0F80B10F00C0F21D0686800F038
:100AE0000C00082803D1686810F4803F18D02069F2
:100AF00088B396FAA6F0B0FA80F0800000F1844046
:100B000000F584000660FFF71DFC824698FAA8F005
:100B1000B0FA80F040F02000400929D0286828E091
:100B200098FAA8F0B0FA80F040F02000400901D017
:100B3000286800E0686A98FAA8F1B1FA81F101F03A
:100B40001F0106FA01F1084206D02069012803D0EE
:100B50000120BDE8F88F40E028689BFAABF261699C
:100B6000B2FA82F220F0F80091400843286075E064
:100B7000686A98FAA8F1B1FA81F101F01F0106FA4A
:100B800001F108421DD1FFF7DDFBA0EB0A0064284C
:100B900002D90320BDE8F88F98FAA8F0B0FA80F0E7
:100BA00040F02000400901D0286800E0686A98FA07
:100BB000A8F1B1FA81F101F01F0106FA01F1084232
:100BC000E1D028689BFAABF26169B2FA82F220F0B8
:100BD000F80091400843286040E096FAA6F0B0FA89
:100BE00080F0800000F1844000F58400C0F800909F
:100BF000FFF7A8FB824698FAA8F0B0FA80F040F020
:100C00002000400901D0286800E0686A98FAA8F13D
:100C1000B1FA81F101F01F0106FA01F108421DD07D
:100C2000FFF790FBA0EB0A00642802D90320BDE87F
:100C3000F88F98FAA8F0B0FA80F040F02000400950
:100C400001D0286800E0686A98FAA8F1B1FA81F149
:100C500001F01F0106FA01F10842E1D1207810F0FD
:100C6000080F61D0A069D0B396FAA6F0B0FA80F070
:100C7000800000F1844000F58400C0F88064FFF734
:100C800061FB824698FAA8F0B0FA80F040F060006C
:100C9000B6EB501F04D128680EE00000001002409F
:100CA00098FAA8F0B0FA80F040F06000B8EB501F5E
:100CB00001D1286A00E0686A98FAA8F1B1FA81F1D6
:100CC00001F01F0106FA01F108422AD1FFF73AFBB1
:100CD000A0EB0A00642803D90320BDE8F88F24E0C4
:100CE00098FAA8F0B0FA80F040F06000B6EB501F20
:100CF00001D128680BE098FAA8F0B0FA80F040F033
:100D00006000B8EB501F01D1286A00E0686A98FAC9
:100D1000A8F1B1FA81F101F01F0106FA01F10842D0
:100D2000D4D00120FFF710FA58E096FAA6F0B0FAF6
:100D300080F0800000F1844000F58400C0F88094C9
:100D4000FFF700FB824698FAA8F0B0FA80F040F076
:100D50006000B6EB501F01D128680BE098FAA8F0AC
:100D6000B0FA80F040F06000B8EB501F01D1286A63
:100D700000E0686A98FAA8F1B1FA81F101F01F0168
:100D800006FA01F1084229D0FFF7DCFAA0EB0A00CD
:100D9000642802D90320BDE8F88F98FAA8F0B0FAC9
:100DA00080F040F06000B6EB501F01D128680BE0E6
:100DB00098FAA8F0B0FA80F040F06000B8EB501F4D
:100DC00001D1286A00E0686A98FAA8F1B1FA81F1C5
:100DD00001F01F0106FA01F10842D5D1207810F088
:100DE000040F70D0E86940F08050E861E86900F0D5
:100DF00080500090DFF844B4DBF8000040F48070CD
:100E0000CBF80000FFF79EFA8246DBF8000010F4F2
:100E1000807F0DD1FFF796FAA0EB0A00642802D973
:100E20000320BDE8F88FDBF8000010F4807FF1D0DC
:100E3000286A20F001002862286A20F00400286255
:100E4000FFF780FA824698FAA8F0B0FA80F040F0F6
:100E50004000B6EB501F01D128680BE098FAA8F0CB
:100E6000B0FA80F040F04000B8EB501F01D1286A82
:100E700000E0686A98FAA8F1B1FA81F101F01F0167
:100E800006FA01F108422AD0FFF75CFAA0EB0A004B
:100E9000B84202D90320BDE8F88F98FAA8F0B0FA5A
:100EA00080F040F04000B6EB501F01D128680CE004
:100EB00098FAA8F0B0FA80F040F04000B8EB501F6C
:100EC00002D1286A01E0CFE0686A98FAA8F1B1FA85
:100ED00081F101F01F0106FA01F10842D4D1E06866
:100EE00001281AD0F0B1052825D0286A20F0010089
:100EF0002862286A20F004002862E06878B3FFF7CF
:100F000021FA824698FAA8F0B0FA80F040F040004A
:100F1000B6EB501F18D1286823E0286A40F0010082
:100F20002862EAE7286A20F001002862286A20F097
:100F300004002862E1E7286A40F004002862286A79
:100F400040F001002862D8E798FAA8F0B0FA80F0E3
:100F500040F04000B8EB501F02D1286A01E035E0B4
:100F6000686A98FAA8F1B1FA81F101F01F0106FA56
:100F700001F1084278D1FFF7E5F9A0EB0A00B84289
:100F800002D90320BDE8F88F98FAA8F0B0FA80F0F3
:100F900040F04000B6EB501F01D128680BE098FAF2
:100FA000A8F0B0FA80F040F04000B8EB501F01D13B
:100FB000286A00E0686A98FAA8F1B1FA81F101F0B4
:100FC0001F0106FA01F10842D5D04DE0FFF7BAF94A
:100FD000824698FAA8F0B0FA80F040F04000B6EBF4
:100FE000501F01D128680BE098FAA8F0B0FA80F001
:100FF00040F04000B8EB501F01D1286A00E0686A59
:1010000098FAA8F1B1FA81F101F01F0106FA01F195
:10101000084229D0FFF796F9A0EB0A00B84202D99E
:101020000320BDE8F88F98FAA8F0B0FA80F040F0FD
:101030004000B6EB501F01D128680BE098FAA8F0E9
:10104000B0FA80F040F04000B8EB501F01D1286AA0
:1010500000E0686A98FAA8F1B1FA81F101F01F0185
:1010600006FA01F10842D5D1E069D0B3696801F010
:101070000C0108297ED04FF0807A4FF000780228CA
:1010800017D09AFAAAF0B0FA80F0800000F18440FC
:1010900000F58400C0F80090FFF754F9044698FA70
:1010A000A8F0B0FA80F040F0200040097ED0286817
:1010B00097E09AFAAAF0B0FA80F0800000F184403C
:1010C00000F58400C0F80090FFF73CF9074698FA55
:1010D000A8F0B0FA80F040F02000400902D0286863
:1010E00001E0A5E0686A98FAA8F1B1FA81F101F08F
:1010F0001F0106FA01F108421CD0FFF723F9C01BBB
:10110000642802D90320BDE8F88F98FAA8F0B0FA55
:1011100080F040F02000400901D0286800E0686AB3
:1011200098FAA8F1B1FA81F101F01F0106FA01F174
:101130000842E2D1206AB0F5803F05D16868A16815
:1011400020F4003008436860616A206A08436968D7
:1011500021F47411084368609AFAAAF0B0FA80F09A
:10116000800000F1844000F584000660FFF7EAF893
:10117000044600E05FE098FAA8F0B0FA80F040F092
:101180002000400901D0286800E0686A98FAA8F1B8
:10119000B1FA81F101F01F0106FA01F1084247D1CD
:1011A000FFF7D0F8001B642804D900E018E0032002
:1011B000BDE8F88F98FAA8F0B0FA80F040F020006F
:1011C000400901D0296800E0696A98FAA8F0B0FAED
:1011D00080F000F01F0006FA00F00142E0D027E0A6
:1011E000686A98FAA8F1B1FA81F101F01F0106FAD4
:1011F00001F108421CD0FFF7A5F8001B642802D9B2
:101200000320BDE8F88F98FAA8F0B0FA80F040F01B
:101210002000400901D0296800E0696A98FAA8F026
:10122000B0FA80F000F01F0006FA00F00142E2D1AF
:101230000020BDE8F88F0120BDE8F88F0070004065
:101240004FF0E021042804D0086920F00400086170
:101250007047086940F0040008617047704700005B
:10126000401EB0F1807F01D3012070474FF0E02194
:101270004861044AF020107000208861072008614E
:101280000020704723ED00E010B5FFF7E7FF10BD29
:101290007047704710B490F83820012A2AD00123F3
:1012A00080F83830022280F839200268D2F804C071
:1012B0002CF0700CC2F804C00268D2F804C00C68AC
:1012C0004CEA040CC2F804C00268D2F808C02CF042
:1012D000800CC2F808C00268D2F808C049684CEA1D
:1012E0000101916080F83930002180F8381010BC7D
:1012F0000020704710BC02207047704770B504464C
:101300000D4694F83800012821D0012684F8386071
:10131000022084F83900E2B1042A2BD0082A3BD0FD
:10132000EB686A682968206800F01AFD2068C169C6
:1013300021F44061C1612068C169AA6841EA0221C3
:10134000C16184F83960002084F8380070BD022043
:1013500070BDEB686A682968206800F094FC20681A
:10136000816921F00C01816120688169AA681143BB
:101370008161E6E7EB686A682968206800F0B2FCE2
:101380002068816921F44061816120688169AA68CF
:1013900041EA02218161D4E7EB686A682968206824
:1013A00000F0C0FC2068C16921F00C01C161206817
:1013B000C169AA681143C161C3E710B50446002C96
:1013C00003D094F8390010B107E0012010BD0020CF
:1013D00084F83800204600F00DF8022084F8390027
:1013E000211D206800F058FB012084F839000020FE
:1013F00010BD000000B587B00068B0F1804F11D17A
:101400000948C16941F00101C161C06900F00100F2
:1014100001900F20029000200390049002A903483D
:10142000FEF79EFE07B000BD00100240000801401C
:1014300070B50446206801694FF0000511F0020FF5
:1014400017D0C16811F0020F13D0E91E016101200D
:1014500020762068806910F0030F03D02046FFF744
:101460004CFF05E0204600F09DF8204600F06EF9A4
:1014700025762068016911F0040F18D0C16811F0B9
:10148000040F14D06FF0040101610220207620685F
:10149000806910F4407F03D02046FFF72EFF05E05F
:1014A000204600F07FF8204600F050F925762068AD
:1014B000016911F0080F18D0C16811F0080F14D09D
:1014C0006FF008010161042020762068C06910F0E7
:1014D000030F03D02046FFF710FF05E0204600F081
:1014E00061F8204600F032F925762068016911F094
:1014F000100F18D0C16811F0100F14D06FF0100148
:101500000161082020762068C06910F4407F03D074
:101510002046FFF7F2FE05E0204600F043F82046A3
:1015200000F014F925762068016911F0010F09D047
:10153000C16811F0010F05D06FF001010161204673
:1015400000F005F92068016911F0800F09D0C16829
:1015500011F0800F05D06FF0800101612046FFF788
:1015600097FE2068016911F0400F09D0C16811F0A1
:10157000400F05D06FF040010161204600F0E8F80F
:101580002068016911F0200F0BD0C16811F0200F05
:1015900007D06FF0200101612046BDE87040FFF7E1
:1015A00078BE70BD704770B504460D4694F838009B
:1015B00001280DD0012684F83860022084F8390013
:1015C00042B1042A1AD0082A2DD00C2A53D13EE069
:1015D000022070BD2946206800F092FA20688169D7
:1015E00041F0080181612068816921F00401816175
:1015F000206881692A69114381613CE0294620689D
:1016000000F0B2FA2068816941F4006181612068CC
:10161000816921F480618161206881692A6941EAD8
:101620000221816127E02946206800F0D1FA206874
:10163000C16941F00801C1612068C16921F004015C
:10164000C1612068C1692A691143C16113E029465B
:10165000206800F0F1FA2068C16941F40061C161BD
:101660002068C16921F48061C1612068C1692A696B
:1016700041EA0221C16184F83960002084F8380011
:1016800070BD10B50446002C03D094F8390010B199
:1016900007E0012010BD002084F83800204600F04B
:1016A0000DF8022084F83900211D206800F0F4F9BB
:1016B000012084F83900002010BD000030B587B04B
:1016C00001681F4AC02002241E4DA1F18043B3F5DA
:1016D000806313D0B3F580630ED1D16941F004016A
:1016E000D161D16901F00401019102900394059444
:1016F00002A92846FEF734FD07B030BDD16941F09C
:101700000201D161D16901F00201019102900394BB
:10171000059402A90C48FEF723FD012002900394D2
:10172000059402A92846FEF71BFD029400210391AF
:10173000049102A92846FEF713FD07B030BD000052
:1017400000100240000C0140000801407047704743
:10175000704770B50446002C04D094F83900002579
:1017600010B106E0012070BD84F83850204600F02A
:1017700021F8022084F839002068C16821F4005162
:10178000C160204600F00CFB2068016921F4904103
:1017900001612068416921F02A0141612068C16826
:1017A00041F40051C160E563012084F83900002054
:1017B00070BD000010B586B00068A0F18041B1F5A1
:1017C0009C311DD10F48816941F48041816180695C
:1017D00000F4804001904FF40070029002200390CA
:1017E00003200590084C02A92046FEF7B9FC2115FC
:1017F000029100210391049102A92046FEF7B0FC5A
:1018000006B010BD001002400008014030B587B09E
:101810001748816941F020018161816901F020014F
:101820000191816941F004018161816901F0040144
:101830000191816941F008018161806900F008002F
:1018400001904FF470400290012503950224059405
:1018500002A90848FEF784FC4FF46140029003950A
:10186000059402A90448FEF77BFC07B030BD0000D8
:1018700000100240000C01400008014010B586B085
:1018800016484FF080410160472141600024846088
:10189000C4600461FFF791FD0494059404A90F4806
:1018A000FFF7F8FC009401200190029403940022B9
:1018B00069460A48FFF722FD042269460748FFF7F8
:1018C0001DFD082269460548FFF718FD0C226946F0
:1018D0000248FFF713FD06B010BD0000080000200D
:1018E00030B58FB01B481A49016047214160002480
:1018F000846040F2E731C1600461FFF7C2FE154821
:10190000FFF75BFD0C940D940CA91248FFF7C2FC85
:10191000602005900125069507940994002205A9E9
:101920000C48FFF740FE042205A90A48FFF73BFEDA
:10193000082205A90748FFF736FE00940195029496
:1019400003940C2269460348FFF7D8FC0FB030BD62
:10195000000400404400002010B58AB0134812492A
:101960000160472141600024846044F61F61C1602A
:101970000461FFF786FE0894099408A90B48FFF755
:1019800089FC6020019040F2DB50029003940594A2
:10199000002201A90548FFF706FE042201A9034819
:1019A000FFF701FE0AB010BD0008004080000020D3
:1019B0000848074901604FF4E1314160002181602E
:1019C000C16001610C2242618161C161FFF7C1BE4A
:1019D00000380140BC00002010B5FEF7B9FCBDE89E
:1019E0001040FFF751BC30B591B0012006900004C3
:1019F00007900024089402250D950E904FF4E010F6
:101A00000F9006A8FEF74EFF052001900295039463
:101A1000680204900594022101A8FEF721FDFEF75B
:101A2000AFFE4FF47A71B0FBF1F0FFF719FC042020
:101A3000FFF706FC00221146501EFEF7CBFC11B04A
:101A400030BD00000E48016841F0010101604168AD
:101A50000C4A11404160016821F4102121F080718D
:101A60000160016821F480210160416821F4FE01D8
:101A700041604FF41F0181600349C0030860704753
:101A8000001002400000FFF808ED00E00148FFF7F9
:101A9000CFBC00000800002030B40268DFF854C05A
:101AA000154C164B604506D0B0F1804F03D0A042D4
:101AB00001D0984203D122F070024D682A4360455C
:101AC00006D0B0F1804F03D0A04201D0984203D19C
:101AD00022F44072CB681A4302608A68C2620A68C4
:101AE0008262604501D1096901630121416130BC15
:101AF00070470000002C0140000400400008004036
:101B000010B4026A22F001020262036A4268D0F84D
:101B100018C02CF0700C2CF0030C0C6844EA0C0C70
:101B200023F002038C6823430E4CA04206D123F01D
:101B30000803CC6844EA030323F0040309D122F428
:101B4000807222F400724C6944EA02028C6944EA11
:101B500002024260C0F818C049684163036210BCC9
:101B600070470000002C014010B4026A22F01002FD
:101B70000262036A4268D0F818C02CF4E04C2CF4DE
:101B8000407C0C684CEA042C23F020038C6843EA68
:101B900004130E4CA04206D123F08003CC6843EA24
:101BA000041323F0400309D122F4806222F400627E
:101BB0004C6942EA84028C6942EA84024260C0F8BD
:101BC00018C049688163036210BC7047002C014053
:101BD00010B4026A22F480720262036A4268D0F88A
:101BE0001CC02CF0700C2CF0030C0C6844EA0C0C9C
:101BF00023F400738C6843EA04230E4CA04206D100
:101C000023F40063CC6843EA042323F4806309D1FE
:101C100022F4805222F400524C6942EA04128C6988
:101C200042EA04124260C0F81CC04968C163036202
:101C300010BC7047002C014010B4026A22F480529C
:101C40000262036A4268D0F81CC02CF4E04C2CF409
:101C5000407C0C684CEA042C23F400538C6843EA63
:101C60000433A0F18044B4F5963404D122F48042C8
:101C70004C6942EA84124260C0F81CC049680164A1
:101C8000036210BC704730B4D0F820C02CF0010CB7
:101C9000C0F820C0D0F818C0046AA0F18045B5F59E
:101CA00096351AD0B0F1804F17D015F5943514D071
:101CB000B5F5806511D04CF0010222F0F0024FF032
:101CC000F00C0CEA03131A4324F00A0301F00A0192
:101CD00019438261016230BC70472CF0030C4CEA5E
:101CE0000202EAE710B4D0F820C02CF0100CC0F8C3
:101CF00020C08469D0F820C024F4407444EA022251
:101D000022F470424FF4704404EA03331A432CF077
:101D1000A0034FF0A00C0CEA01111943826101628B
:101D200010BC704710B4D0F820C02CF4807CC0F8F0
:101D300020C0C469D0F820C024F00304224322F05C
:101D4000F002F02404EA03131A432CF420634FF446
:101D5000206C0CEA01211943C261016210BC70477A
:101D600010B4D0F820C02CF4805CC0F820C0C46946
:101D7000D0F820C024F4407444EA022222F47042D5
:101D80004FF4704404EA03331A432CF420434FF415
:101D9000204C0CEA01311943C261016210BC70474A
:101DA0002DE9F041044620680169E26821F44051C0
:101DB000114301612169A0680843616901432068FA
:101DC000C26822F4037222F4A0521143C160206859
:101DD0004169A26921F44071114341612068374D86
:101DE0003226A0F18041B1F59C3133D0FEF7E2FC00
:101DF00000EBC00101EB001061688900B0FBF1F05D
:101E0000A5FB00104709FEF7D5FC00EBC00101EB74
:101E1000001061688900B0FBF1F8FEF7CBFC00EB25
:101E2000C00101EB001061688900B0FBF1F0A5FB77
:101E3000001040096FF01801484308EB800006EBE2
:101E40000010A5FB00102168400967F31F1088608F
:101E5000BDE8F081FEF7C4FC00EBC00101EB00100F
:101E600061688900B0FBF1F0A5FB00104709FEF79F
:101E7000B7FC00EBC00101EB001061688900B0FB0A
:101E8000F1F8FEF7ADFC00EBC00101EB001061685A
:101E90008900B0FBF1F0A5FB001040096FF01801BC
:101EA000484308EB800006EB0010A5FB00102168FA
:101EB000400967F31F108860BDE8F0811F85EB5172
:101EC00002E008C8121F08C1002AFAD17047704703
:101ED000002001E001C1121F002AFBD17047FEF76C
:101EE0003FFAFFF780FDFFF791FCFFF7C7FCFFF714
:101EF000F7FCFFF731FDFFF75BFDFEE70000000098
:101F00000102030401020304060708092C1F00084C
:101F10000000002008000000C01E0008341F000858
:101F200008000020F8040000D01E000800A24A04A7
:041F300000000000AD
:04000005080000ED02
:00000001FF
